:1000000065C0000084C0000082C0000080C0000005
:100010007EC000007CC000007AC0000078C00000F4
:1000200076C0000074C0000072C0000070C0000004
:100030006EC000006CC000006AC0000068C0000014
:1000400066C0000064C0000062C0000060C0000024
:100050005EC000005CC000005AC0000058C0000034
:1000600056C0000054C0000052C0000050C0000044
:100070004EC000004CC000004AC0000048C0000054
:1000800046C0000044C0000042C0000040C0000064
:100090003EC000003CC000003AC0000038C0000074
:1000A00036C0000034C0000032C0000030C0000084
:1000B0002EC000002CC000002AC0000028C0000094
:1000C00026C0000024C0000022C0000011241FBE72
:1000D000CFEFD1E2DEBFCDBF00E00CBF12E0A0E069
:1000E000B2E0E0E6FCE100E00BBF02C007900D9239
:1000F000A031B107D9F722E0A0E1B2E001C01D9222
:10010000A236B207E1F70E94BB0C0C942E0E78CFFA
:100110009C0121503109892B71F000000000000082
:1001200000000000000000000000000000000000CF
:100130002150310990F708954F925F927F928F92EC
:100140009F92AF92BF92CF92DF92EF92FF920F9366
:100150001F93CF93DF9300D01F92CDB7DEB781E01E
:1001600090E09C838B831A821982AE014F5F5F4FB0
:1001700060E172E088E092E009D689819A81892B5A
:10018000A1F40F900F900F900F90DF91CF911F91DE
:100190000F91FF90EF90DF90CF90BF90AF909F9026
:1001A0008F907F905F904F90089580E092E00E9442
:1001B000000D8C01009729F344244394512C0E9494
:1001C000830AAE014D5F5F4F60E172E088E092E02C
:1001D000DDD58090240290902502A12CB12C5401F1
:1001E0009924882480912A0290912B02880E991ECE
:1001F000A11CB11C980140E050E0C501B40198D1A8
:10020000C12C7CE2D72EEE24E394F12C712C20E05B
:1002100030E00AC081E0C81AD108E108F108C11431
:10022000D104E104F104B9F1F901EE0FFF1FE00F71
:10023000F11F408151815A9A479A4698CA01A0E01D
:10024000B0E0892F9A2FAB2FBB278EB9469A4EB9B3
:100250004698469A5A982F5F3F4F211581E03807FC
:10026000C9F67394472D50E080914702909148025F
:100270004817590739F09801C501B40159D120E058
:1002800030E0C8CFC501B4018AD14B015C0140E028
:1002900050E0712CF0CF23E08FEF9FEF00000000C3
:1002A000000000000000000000000000000000004E
:1002B00000000197009791F7215071F78B819C8185
:1002C00001969C838B8329813A812817390708F08E
:1002D00076CF5C824B8273CF599A47986EB9469815
:1002E000469A599808955A9A479A6EB94698469AE6
:1002F0005A9808950F931F935A9A479A4698072F32
:10030000182F292F33270EB9469A6EB94698469A68
:100310005A981F910F9108958F929F92AF92BF921A
:10032000CF92DF92EF92FF921F93CF93DF93CDB7DF
:10033000DEB7D2500FB6F894DEBF0FBECDBF0E941D
:10034000F7096B017C018FEFC816D104E104F104B9
:10035000A0F411E0812FDE5F0FB6F894DEBF0FBE70
:10036000CDBFDF91CF911F91FF90EF90DF90CF90A5
:10037000BF90AF909F908F900895E0910602F0910A
:100380000702AE014F5F5F4F60E070E0CB0119954F
:10039000182F8111DECFC953DE4F88809980AA8043
:1003A000BB80C75CD140F9E0F694E794D794C7943A
:1003B000FA95D1F78C149D04AE04BF0408F480C0F4
:1003C00089818D7F893E29F6812C912C54012F89BA
:1003D000388D2115310509F493C0109251023093E4
:1003E00053022093520282E090E0A0E0B0E08093BC
:1003F0005A0290935B02A0935C02B0935D028C85DD
:100400009D8590935902809358028E8590E0909339
:100410004802809347028F859889880E991EA11CF7
:10042000B11C80924D0290924E02A0924F02B09267
:1004300050024A895B8960E070E040934302509328
:1004400044026093450270934602440F551F661F95
:10045000771F440F551F661F771F440F551F661FD8
:10046000771F440F551F661F771F452F562F672F85
:10047000772740935402509355026093560270932D
:100480005702E989E29FC001E39F900D1124880E75
:10049000991EA11CB11C80923F0290924002A09232
:1004A0004102B0924202480D591D6A1D7B1D4093C6
:1004B000490250934A0260934B0270934C024ACF18
:1004C000E0910602F0910702AE014F5F5F4FC50158
:1004D000B401199581113DCF89818D7F893E09F441
:1004E00076CFE0910602F0910702AE014F5F5F4FB9
:1004F00060E070E0CB011995882309F461CF29CF22
:1005000081E0809351025DA14EA15093520240932D
:1005100053028DA59EA5AFA5B8A980935A029093CA
:100520005B02A0935C02B0935D02252F342F67CF4E
:10053000CF92DF92EF92FF92CF93DF93E901C090C9
:100540004902D0904A02E0904B02F0904C02C40E57
:10055000D51EE11CF11C6250710981099109A0911D
:100560004702B09148029B01AC010E94E70CC60E05
:10057000D71EE81EF91EE0910602F0910702AE01B7
:10058000C701B601199591E0811101C090E0892F52
:10059000DF91CF91FF90EF90DF90CF900895CF92B1
:1005A000DF92EF92FF920F931F93CF93DF93CDB71C
:1005B000DEB7D2500FB6F894DEBF0FBECDBF6B01D1
:1005C0007C0180915102882311F19701860187E017
:1005D00036952795179507958A95D1F782E0C81625
:1005E000D104E104F104E8F468EF7FEF8FEF9FE0BE
:1005F000DE5F0FB6F894DEBF0FBECDBFDF91CF91A7
:100600001F910F91FF90EF90DF90CF9008953327C7
:100610002F2D1E2D0D2D82E0C816D104E104F1040A
:1006200018F360914D0270914E0280914F029091AB
:100630005002600F711F821F931FE0910602F0911C
:100640000702AE014F5F5F4F19958111CDCF8091A9
:1006500051028823A9F0E894C7F8DD24EE24FF2492
:10066000F601EE0FFF1FEE0FFF1F81E090E08C0FF1
:100670009D1FE80FF91F6081718182819381B8CF3E
:10068000DD24EE24FF24F601EE0FFF1F81E090E051
:100690008C0F9D1FE80FF91F6081718180E090E051
:1006A000A7CF2F923F924F925F926F927F928F923D
:1006B0009F92AF92BF92CF92DF92EF92FF920F93F1
:1006C0001F93CF93DF93CDB7DEB727970FB6F8947C
:1006D000DEBF0FBECDBF4B015C015F834E8339018E
:1006E000611571058105910529F4809151028823D6
:1006F00009F44EC14090470250904802D201A50132
:10070000940122503109410951090E94E70C6B0103
:100710007C018091490290914A02A0914B02B091D4
:100720004C02C80ED91EEA1EFB1E80E092E00E9419
:10073000000D8C01009709F445C2452809F402C157
:1007400019829C01265F3F4F3B832A8316012701B4
:100750003981230E311C411C511CE0910602F0919D
:100760000702A801C201B1011995811129C21D8397
:100770000C83EA81FB8180E090E0AC81BD814C91EB
:1007800031E0453E09F402C121E0411101C020E001
:10079000232309F4BEC09801280F391FD9011B96E5
:1007A0002C912F3009F4B5C0AE81BF812C9142133A
:1007B000B0C09F0129503109D9013C91AE81BF8160
:1007C00011962C913213A5C09F0128503109D901EF
:1007D0003C91AE81BF8112962C9132139AC09F0139
:1007E00027503109D9013C91AE81BF8113962C91DC
:1007F00032138FC09F0126503109D9013C91AE813F
:10080000BF8114962C91321384C09F012550310969
:10081000D9013C91AE81BF8115962C91321379C0DC
:100820009F0124503109D9013C91AE81BF811696B8
:100830002C9132136EC09F0123503109D9013C9194
:10084000AE81BF8117962C91321363C09F01225055
:100850003109D9013C91AE81BF8118962C91321398
:1008600058C09F0121503109D9013C91AE81BF810F
:1008700019962C91199732134CC030811A962C91ED
:10088000321347C0EC81FD814489558960E070E0F6
:10089000BA0155274427228D338D420F531F611D06
:1008A000711DD3014D935D936D937C931397448D8C
:1008B000558D668D778DF3014483558366837783E9
:1008C000AC81BD811B962C91208721863286438680
:1008D000548696878587C8010E94980D80E090E035
:1008E00027960FB6F894DEBF0FBECDBFDF91CF9134
:1008F0001F910F91FF90EF90DF90CF90BF90AF903E
:100900009F908F907F906F905F904F903F902F902F
:10091000089580962C813D81205E3F4F3D832C833E
:10092000B096811532E0930709F027CF29812F5F18
:10093000298330E0809147029091480228173907B7
:1009400008F404CFC8010E94980DC501B40127DE48
:100950004B015C016F3F3FEF730783073FE0930755
:1009600009F430C1683F3FEF730783073FE0930707
:1009700009F428C1809151028111BCCE8FEF8816F5
:100980009806A104B10409F0B5CE1CC130E0FCCE3C
:1009900080E092E00E94000D8C01009709F412C1E2
:1009A0008091540290915502A0915602B091570245
:1009B000892B8A2B8B2B09F403C1C12CD12C7601F6
:1009C000912C58012AE0A20EB11C60913F02709157
:1009D000400280914102909142026C0D7D1D8E1D5E
:1009E0009F1DE0910602F0910702A801199581115F
:1009F000E7C02801F50180E090E0D2014C9131E0A0
:100A0000453E09F4E2C021E0411101C020E023236A
:100A100009F4B9C09801280F391FD9011B962C91F0
:100A20002F3009F4B0C0AE81BF812C914213ABC00E
:100A30009F0129503109D9013C91AE81BF811196A6
:100A40002C913213A0C09F0128503109D9013C914B
:100A5000AE81BF8112962C91321395C09F01275011
:100A60003109D9013C91AE81BF8113962C9132138B
:100A70008AC09F0126503109D9013C91AE81BF81C6
:100A800014962C9132137FC09F0125503109D90152
:100A90003C91AE81BF8115962C91321374C09F0199
:100AA00024503109D9013C91AE81BF8116962C9119
:100AB000321369C09F0123503109D9013C91AE81A5
:100AC000BF8117962C9132135EC09F0122503109CD
:100AD000D9013C91AE81BF8118962C91321353C03D
:100AE0009F0121503109D9013C91AE81BF811996F6
:100AF0002C911997321347C030811A962C913213DA
:100B000042C0D20154964D915C91559760E070E0DF
:100B1000BA01552744275A962D913C915B97420F75
:100B2000531F611D711DF3014083518362837383E1
:100B30005C964D915D916D917C915F97D30144835B
:100B4000558366837783F201238518962C93189733
:100B500040913F02509140026091410270914202E7
:100B60004C0D5D1D6E1D7F1D19964D935D936D930C
:100B70007C931C971E969C938E931D97C801D8D783
:100B800080E090E0ADCE8096B0E24B0E511CB09666
:100B9000811522E0920709F030CF9394C92CD12C13
:100BA000E12CF12C8091540290915502A0915602B3
:100BB000B0915702C816D906EA06FB0608F405CF1D
:100BC000C801B6D781E090E08BCE30E01CCF6F92A9
:100BD0007F928F929F92AF92BF92CF92DF92EF92CD
:100BE000FF920F931F93CF93DF93CDB7DEB72B9771
:100BF0000FB6F894DEBF0FBECDBF8C0180915102BD
:100C0000882329F160905A0270905B0280905C0208
:100C100090905D02F80120812C3509F161E070E0CF
:100C200080E090E02B960FB6F894DEBF0FBECDBFEC
:100C3000DF91CF911F910F91FF90EF90DF90CF90B8
:100C4000BF90AF909F908F907F906F900895612C90
:100C5000712C812C912CF80120812C35F9F6C801DA
:100C60000196FC0130E0CC24C394C30E2C3509F06E
:100C7000C32E3C2D21912111F6CFD12CF1E0CF1ABA
:100C8000D1081C141D040CF047C0A12CFE013196A4
:100C90007F0140E2B42EB982BA82BB82BC82BD829F
:100CA000BE82BF82B886B986BA86BB86F80121812A
:100CB0002C3581F1329680E006C020522C938F5F54
:100CC00021912C3569F09FE9920F8F01D701A80F70
:100CD000B11D9A3190F32C938F5F21912C3599F7A8
:100CE00020E332E0A701B301C401DBDC892B09F06A
:100CF00095CF6090300270903102809032029090D7
:100D00003302A3948A2D90E08C159D054CF4C80104
:100D10000196C1CF8C01E4CF9E012F5F3F4F790137
:100D20004BE050E060E270E0C70191D7F8018181AB
:100D30008823B9F0329690E006C080528C939F5F72
:100D40008191882361F02FE9280FD701A90FB11DE8
:100D50002A3198F38C939F5F81918111F4CF911187
:100D600003C0B301C4015ECF20E332E0A701B301A9
:100D7000C40197DC892B09F051CF6091300270914A
:100D8000310280913202909133024CCF2F923F92E8
:100D90004F925F926F927F928F929F92AF92BF928B
:100DA000CF92DF92EF92FF920F931F93CF93DF9337
:100DB000EB011A010CDF4B015C0181E08816910404
:100DC000A104B10409F4E0C081149104A104B104A8
:100DD00009F4F0C0412C512C6090470270904802F9
:100DE000D301A50194012250310941095109EFD5E0
:100DF0006B017C018091490290914A02A0914B02C3
:100E0000B0914C02C80ED91EEA1EFB1E80E092E093
:100E1000F7D58C01009709F4B7C0672809F48FC093
:100E2000712CE0910602F0910702A801C701B601FA
:100E3000670D711D811D911D1995682E8111A2C02C
:100E4000F80120E130E012C0942341E0853EE1F05A
:100E5000492329F05F3019F090859234B9F0215080
:100E60003109B0962115310509F45EC080815385A2
:100E700091E0811101C090E041E08E3229F740E01D
:100E8000942341E0853E21F740E0E2CF418549349B
:100E900031F762856E3419F7888381818983828175
:100EA0008A8383818B8384818C8385818D838681F2
:100EB0008E8387818F83988749876A875B8784853C
:100EC0008C8785858D8786858E8787858F878089A6
:100ED000888B8189898B82898A8B83898B8B848992
:100EE00095899D8B8C8B86898E8B87898F8B808D46
:100EF000888F818D898F828D938D9B8F8A8F848D32
:100F0000958DA68DB78D8C8F9D8FAE8FBF8FBFEFC8
:100F10004B1A5B0AD1014D915C914415550509F0BE
:100F20009ECFC80105D632C07394272D30E0809142
:100F30004702909148022817390708F472CFC80178
:100F4000F7D5C501B4012BDB4B015C016F3FBFEF4F
:100F50007B078B07BFE09B0709F4EBC0683FEFEF0F
:100F60007E078E07EFE09E0709F4E3C080915102EF
:100F7000811132CFFFEF8F169F06A104B10409F053
:100F80002BCFD7C0C801D4D566246394862DDF91BA
:100F9000CF911F910F91FF90EF90DF90CF90BF9076
:100FA000AF909F908F907F906F905F904F903F9009
:100FB0002F9008958091510281110CCF80E092E032
:100FC0001FD58C01009701F3809154029091550236
:100FD000A0915602B0915702892B8A2B8B2B09F4D2
:100FE000B4C0C12CD12C7601412C512CB12C609174
:100FF0003F027091400280914102909142026C0D3B
:101000007D1D8E1D9F1DE0910602F0910702A80133
:101010001995682E8111B6CFF80120E130E012C099
:10102000942341E0853EE1F0492329F05F3019F037
:1010300090859234B9F021503109B09621153105CF
:1010400009F462C08081538591E0811101C090E074
:1010500041E08E3229F740E0942341E0853E21F7BC
:1010600040E0E2CF4185493431F762856E3419F7AB
:1010700088838181898382818A8383818B83848130
:101080008C8385818D8386818E8387818F839887EA
:1010900049876A875B8784858C8785858D87868568
:1010A0008E8787858F878089888B8189898B8289C4
:1010B0008A8B83898B8B848995899D8B8C8B868980
:1010C0008E8B87898F8B808D888F818D898F828D84
:1010D000938D9B8F8A8F848D958DA68DB78D8C8FE8
:1010E0009D8FAE8FBF8FAFEF4A1A5A0AD1018D91F3
:1010F0009C918415950509F414CF21503109B096BF
:101100002115310509F09ECFB394CB2CD12CE12CC5
:10111000F12C8091540290915502A0915602B09109
:101120005702C816D906EA06FB0608F460CFC801C4
:10113000FFD4D1018D919C911197892B21F44D926F
:101140005C92612C23CF612C21CF412C512CEFCF0D
:101150009FEF9EBD0DB407FEFDCF9EB5289880641D
:101160008EBD0DB407FEFDCF8EB5872F9927AA2718
:10117000BB278EBD0DB407FEFDCF8EB5CB01AA27D0
:10118000BB278EBD0DB407FEFDCF8EB5BB27A72FA5
:10119000962F852F8EBD0DB407FEFDCF8EB54EBDAB
:1011A0000DB407FEFDCF8EB585E98EBD0DB407FEEB
:1011B000FDCF8EB590E02FEF2EBD0DB407FEFDCF15
:1011C0008EB58F3F11F49150B9F7289A0895CF93B7
:1011D00083E58CBD8DB58E7F8DBD41E02FEF3FEF58
:1011E00060E455E98AE03EBD0DB407FEFDCF9EB533
:1011F0008150C9F72EBD0DB407FEFDCF8EB52898DE
:101200006EBD0DB407FEFDCF8EB51EBC0DB407FE3E
:10121000FDCF8EB51EBC0DB407FEFDCF8EB51EBC36
:101220000DB407FEFDCF8EB51EBC0DB407FEFDCF7D
:101230008EB55EBD0DB407FEFDCF8EB580E02EBD30
:101240000DB407FEFDCF9EB59F3F49F48150B9F71D
:10125000289A4F3F09F458C04F5F8AE0C4CF289ABC
:101260004F3F09F451C09130B9F721E08FEF41E4CD
:1012700035E98EBD0DB407FEFDCF9EB528984EBD55
:101280000DB407FEFDCF9EB51EBC0DB407FEFDCF0D
:101290009EB51EBC0DB407FEFDCF9EB51EBC0DB4A1
:1012A00007FEFDCF9EB51EBC0DB407FEFDCF9EB55B
:1012B0003EBD0DB407FEFDCF9EB590E08EBD0DB4D2
:1012C00007FEFDCFCEB5CF3F39F49150B9F7289A3C
:1012D0002F3FD1F02F5FCDCF289A2F3FA9F0C1111A
:1012E000F9CF80E58CBD8DB581608DBD40E050E0CB
:1012F000BA018BE32DDF40E052E060E070E080E176
:1013000027DF8C2FCF910895C1E08C2FCF910895C6
:101310000F931F93CF93DF93C0E013E5D0E50FEF5A
:101320001092660084B1876084B91CBD8DB58E7F34
:101330008DBDDCBD8DB581608DBD289A03C0CF5FAA
:10134000CF3F71F344DF8111FACF009366008FEF36
:101350009FEF0E9488000E948C018111E1CFDF91F4
:10136000CF911F910F910895CF93DF93D42FC52F65
:1013700039E0660F771F881F991F3A95D1F7AB01A7
:10138000BC0181E1E5DE811110C028988AEE93E06E
:101390003FEF3EBD0DB407FEFDCF2EB52E3F41F011
:1013A00001970097B1F7289A81E0DF91CF910895D6
:1013B000ED2FFC2FCF019E5F3FEF3EBD0DB407FE2A
:1013C000FDCF2EB52193E817F907B9F78FEF8EBD42
:1013D0000DB407FEFDCF8EB58FEF8EBD0DB407FEA9
:1013E000FDCF8EB5289A80E0DF91CF910895CF93FD
:1013F000DF93CDB7DEB760970FB6F894DEBF0FBEB0
:10140000CDBF40E050E0BA0189E0A2DE81116CC09E
:1014100028989FEF9EBD0DB407FEFDCF8EB58E3F81
:10142000C9F7FE013196CE0141963FEF3EBD0DB4A6
:1014300007FEFDCF2EB52193E817F907B9F78FEF17
:101440008EBD0DB407FEFDCF8EB58FEF8EBD0DB4F2
:1014500007FEFDCF8EB58FEF8EBD0DB407FEFDCF1D
:101460008EB5289A8F81837090E0982F88272885E1
:10147000820F911D880F991F880F991FA985A2952A
:10148000A695A695A370B0E02A852370220F4B8500
:10149000441F4427441F4E5F420F81F121E030E09A
:1014A000220F331F4150E1F740E050E01196A80FA2
:1014B000B91F8DD29B01AC018E818F7090E0009797
:1014C000C1F061E070E0660F771F01970097D9F7D0
:1014D00080E090E06DD260960FB6F894DEBF0FBE4C
:1014E000CDBFDF91CF910895682F70E080E090E04C
:1014F000F2CF61E070E080E090E0ECCF21E030E0FE
:1015000040E050E0D3CF0F931F93CF93DF9300E4DD
:1015100011E0C0EFD0E060E070E0CB010E947A0102
:1015200021972097C1F7015011090115110589F77D
:10153000DF91CF911F910F910895429A81E090E041
:101540000E94880042988AE090E00E948800429AB7
:1015500088E790E00E948800459A62EB70E080E0A6
:1015600090E00E946C016CE070E080E090E00E94EE
:1015700073016CE070E080E090E00E94730160E035
:1015800070E0CB010E94730163E370E080E090E0C3
:101590000E94730163E370E080E090E00E947301B9
:1015A00067EB70E080E090E00E946C0165E370E022
:1015B00080E090E00E9473016AE370E080E090E0D8
:1015C0000E946C0165E570E080E090E00E9473018C
:1015D00066E370E080E090E00E946C0160E070E003
:1015E000CB010E9473016BEB70E080E090E00E9401
:1015F0006C016AE270E080E090E00E94730163ECAD
:1016000070E080E090E00E946C016AE070E080E0B1
:1016100090E00E94730164EC70E080E090E00E9432
:101620006C0160E270E080E090E00E94730166EC83
:1016300070E080E090E00E946C016FE070E080E07C
:1016400090E00E94730160ED70E080E090E00E9405
:101650006C0164EA70E080E090E00E94730162EA4D
:1016600070E080E090E00E94730160EE70E080E046
:1016700090E00E946C0160ED70E080E090E00E94DC
:10168000730160E070E0CB010E94730162E070E0E2
:1016900080E090E00E94730167E070E080E090E0FD
:1016A0000E9473016AE070E080E090E00E947301A4
:1016B00068E270E080E090E00E94730162E370E015
:1016C00080E090E00E94730164E470E080E090E0CC
:1016D0000E94730162E470E080E090E00E94730178
:1016E00066E070E080E090E00E9473016EE070E0E0
:1016F00080E090E00E94730162E170E080E090E0A1
:101700000E94730164E170E080E090E00E94730148
:1017100067E170E080E090E00E94730161EE70E0AC
:1017200080E090E00E946C0160ED70E080E090E06D
:101730000E94730160E070E0CB010E94730162E0DF
:1017400070E080E090E00E94730167E070E080E06C
:1017500090E00E9473016AE070E080E090E00E94F7
:10176000730168E270E080E090E00E94730161E341
:1017700070E080E090E00E94730164E570E080E03A
:1017800090E00E94730167E470E080E090E00E94C6
:1017900073016EE070E080E090E00E9473016CE104
:1017A00070E080E090E00E94730167E170E080E00B
:1017B00090E00E9473016BE170E080E090E00E9495
:1017C00073016EE170E080E090E00E9473016AE2D4
:1017D00070E080E090E00E946C0160E070E0CB017E
:1017E0000E94730160E070E0CB010E94730160E031
:1017F00070E0CB010E9473016FEE70E080E090E03A
:101800000E9473016BE270E080E090E00E946C0146
:1018100060E070E0CB010E94730160E070E0CB01FA
:101820000E94730161E070E080E090E00E9473012B
:101830006FE371E080E090E00E94730161E170E08D
:1018400080E090E00E946C0188E790E00E948800B0
:1018500069E270E080E090E00E946C016CE270E070
:1018600080E090E00C946C0112B882E081BB089596
:101870000F931F93CF93DF9300E010E0C0EFD0E011
:10188000083181E0180708F05AC0003F110578F5CB
:101890000832110508F449C000351105F0F0083C84
:1018A000110508F05EC0003A110558F5083711051A
:1018B00090F56FE178EF80E090E00E947A01219747
:1018C0002097B9F70F5F1F4F003481E01807B1F67A
:1018D000DF91CF911F910F91089560EE7FEF80E02F
:1018E00090E00E947A0121972097B9F7EBCF6FE142
:1018F00070E080E090E00E947A0121972097B9F78C
:10190000E1CF6FEF77E080E090E00E947A012197CD
:101910002097B9F7D7CF60E078EF80E090E00E94A1
:101920007A0121972097B9F7CDCF6FEF7FEF80E055
:1019300090E00E947A0121972097B9F7C3CF60E029
:1019400070E0CB010E947A012197209709F4BACF69
:1019500060E070E0CB010E947A012197209779F72F
:10196000B1CF60EE77E080E090E00E947A012197AD
:101970002097B9F7A7CF8FEF81B914B887B99FE047
:101980009AB98DB982E080BB12B880E285B918B8E7
:1019900080EF8BB91EB811BA409A66DFCEDD68DFE2
:1019A00084E690E00E948800B3DC0E949C00FCCF9B
:1019B000DB018F939F930BD0BF91AF91A29F800DBE
:1019C000911DA39F900DB29F900D1124089509D0F1
:1019D000A59F900DB49F900DA49F800D911D112483
:1019E0000895A29FB001B39FC001A39F700D811DF8
:1019F0001124911DB29F700D811D1124911D089518
:101A0000CF93DF938230910510F482E090E0E09173
:101A10006002F091610220E030E0A0E0B0E0309799
:101A200039F14081518148175907B8F048175907D3
:101A300071F482819381109729F013969C938E9371
:101A400012972CC0909361028093600227C02115E9
:101A5000310531F04217530718F0A901DB0101C02D
:101A6000EF019A01BD01DF010280F381E02DD7CFA4
:101A700021153105F9F0281B390B2430310580F48C
:101A80008A819B816115710521F0FB01938382831B
:101A900004C09093610280936002FE01329644C0BC
:101AA000FE01E20FF31F8193919322503109398394
:101AB00028833AC020915E0230915F02232B41F4CB
:101AC000209102023091030230935F0220935E0264
:101AD00020910002309101022115310541F42DB70A
:101AE0003EB74091040250910502241B350BE09152
:101AF0005E02F0915F02E217F307A0F42E1B3F0B8A
:101B00002817390778F0AC014E5F5F4F241735076F
:101B100048F04E0F5F1F50935F0240935E02819327
:101B2000919302C0E0E0F0E0CF01DF91CF91089502
:101B3000CF93DF93009709F487C0FC01329713829B
:101B40001282C0916002D0916102209781F42081BD
:101B50003181280F391F80915E0290915F028217B8
:101B6000930779F5F0935F02E0935E026DC0DE01AA
:101B700020E030E0AE17BF0750F412964D915C9113
:101B800013979D014115510509F1DA01F3CFB38394
:101B9000A28340815181840F951F8A179B0771F49E
:101BA0008D919C911197840F951F0296918380834C
:101BB00012968D919C911397938382832115310501
:101BC00029F4F0936102E09360023EC0D9011396BC
:101BD000FC93EE9312974D915D91A40FB51FEA17F8
:101BE000FB0779F480819181840F951F0296D901BA
:101BF00011969C938E938281938113969C938E93DE
:101C00001297E0E0F0E08A819B81009719F0FE01D5
:101C1000EC01F9CFCE01029628813981820F931F02
:101C200020915E0230915F022817390769F43097DE
:101C300029F4109261021092600202C01382128293
:101C4000D0935F02C0935E02DF91CF910895DC01D3
:101C500001C06D9341505040E0F70895F894FFCFD4
:101C6000000062022000B4095C62617463680000D5
:00000001FF
