:1000000065C0000084C0000082C0000080C0000005
:100010007EC000007CC000007AC0000078C00000F4
:1000200076C0000074C0000072C0000070C0000004
:100030006EC000006CC000006AC0000068C0000014
:1000400066C0000064C0000062C0000060C0000024
:100050005EC000005CC000005AC0000058C0000034
:1000600056C0000054C0000052C0000050C0000044
:100070004EC000004CC000004AC0000048C0000054
:1000800046C0000044C0000042C0000040C0000064
:100090003EC000003CC000003AC0000038C0000074
:1000A00036C0000034C0000032C0000030C0000084
:1000B0002EC000002CC000002AC0000028C0000094
:1000C00026C0000024C0000022C0000011241FBE72
:1000D000CFEFD1E2DEBFCDBF00E00CBF12E0A0E069
:1000E000B2E0ECE8F6E200E00BBF02C007900D9230
:1000F000A031B107D9F722E0A0E1B2E001C01D9222
:10010000A236B207E1F70E94A7110C94441378CFEE
:10011000CF93DF9300D0CDB7DEB79B838A830AC02D
:100120008BE0898304C000008981815089838981A3
:100130008823C9F78A819B819C01215031093B8327
:100140002A83009769F70F900F900F90DF91CF915E
:100150000895CF93DF93CDB7DEB766970FB6F894C7
:10016000DEBF0FBECDBF81E090E09C8B8B8B1E8AE3
:100170001D8A81E090E09E878D8788E092E0988BD1
:100180008F879E012B5E3F4F8F859889A90160E183
:1001900072E00E94E80C8D899E89009709F4C8C01E
:1001A00080E092E00E941D129A8B898B89899A893E
:1001B000009709F4BDC0ACD19E012D5E3F4F8F85E5
:1001C0009889A90160E172E00E94E80C80912A02FE
:1001D00090912B029C0140E050E08091240290918C
:1001E0002502CC01A0E0B0E0DC0199278827820F2E
:1001F000931FA41FB51F8C839D83AE83BF83188676
:100200008885482F50E029893A898C819D81AE816B
:10021000BF81BC01CD01B3D580E09CE2A1E0B0E09C
:1002200089879A87AB87BC871B821A8250C08A81D4
:100230009B81880F991F29893A89820F931FFC019E
:1002400080819181CC01A0E0B0E0BC01CD01FFD064
:1002500089859A85AB85BC850197A109B1098987F4
:100260009A87AB87BC878A819B8101969B838A830F
:100270008A819B818115F1E09F0749F588858F5F11
:1002800088878885282F30E0809147029091480226
:100290002817390771F48C819D81AE81BF81BC0123
:1002A000CD01CBD5DC01CB018C839D83AE83BF8395
:1002B00018868885482F50E029893A898C819D814C
:1002C000AE81BF81BC01CD015AD51B821A828985BE
:1002D0009A85AB85BC850097A105B10509F0A7CF2C
:1002E0008D859E850097D9F0198206C08FEF9FEF0C
:1002F0000FDF89818F5F898389818E31B8F38B8984
:100300009C8901969C8B8B8B2B893C898D899E893E
:100310008217930720F481E090E09C8B8B8B8D8576
:100320009E85009709F048CF89899A890E94B51265
:1003300066960FB6F894DEBF0FBECDBFDF91CF91AA
:100340000895CF93DF9300D01F92CDB7DEB76983B6
:100350007A838B839C838BE290E02BE230E0F9017F
:1003600020812260FC01208388E290E028E230E0D6
:10037000F90120812F77FC0120838EE290E0298112
:10038000FC01208388E290E028E230E0F90120813E
:100390002F7BFC01208388E290E028E230E0F90125
:1003A00020812064FC0120838BE290E02BE230E08E
:1003B000F90120812D7FFC0120830F900F900F9079
:1003C0000F90DF91CF910895CF93DF9300D01F92CC
:1003D000CDB7DEB769837A838B839C838BE290E011
:1003E0002BE230E0F90120812460FC01208388E2C7
:1003F00090E028E230E0F90120812068FC012083B0
:100400008EE290E02981FC01208388E290E028E2DE
:1004100030E0F90120812F7BFC01208388E290E00D
:1004200028E230E0F90120812064FC0120838BE286
:1004300090E02BE230E0F90120812B7FFC0120834A
:100440000F900F900F900F90DF91CF910895CF9361
:10045000DF9300D01F92CDB7DEB769837A838B8399
:100460009C838BE290E02BE230E0F9012081246054
:10047000FC01208388E290E028E230E0F90120814D
:100480002068FC01208388E290E028E230E0F90156
:1004900020812F7BFC0120832EE230E089819A812C
:1004A000AB81BC81892F9A2FAB2FBB27F9018083A9
:1004B00088E290E028E230E0F90120812064FC012C
:1004C00020838EE290E02981FC01208388E290E085
:1004D00028E230E0F90120812F7BFC01208388E2B3
:1004E00090E028E230E0F90120812064FC012083C3
:1004F0008BE290E02BE230E0F90120812B7FFC01C0
:1005000020830F900F900F900F90DF91CF9108955F
:10051000CF93DF9300D01F92CDB7DEB71A82198236
:1005200016C01C821B8209C060E070E0CB018FDF27
:100530008B819C8101969C838B838B819C81803FE6
:10054000910590F389819A8101969A8389838981A3
:100550009A81803421E0920720F30F900F900F9042
:100560000F90DF91CF910895CF93DF93CDB7DEB792
:1005700088E290E028E230E0F90120812460FC016B
:10058000208381E090E0C4DD88E290E028E230E062
:10059000F90120812B7FFC0120838AE090E0B8DD07
:1005A00088E290E028E230E0F90120812460FC013B
:1005B000208388E790E0ACDD88E290E028E230E03C
:1005C000F90120812062FC01208362EB70E080E071
:1005D00090E0B7DE6CE070E080E090E0F5DE6CE08B
:1005E00070E080E090E0F0DE60E070E0CB01ECDEF7
:1005F00063E370E080E090E0E7DE63E370E080E0DA
:1006000090E0E2DE67EB70E080E090E09ADE65E388
:1006100070E080E090E0D8DE6AE370E080E090E097
:1006200090DE65E570E080E090E0CEDE66E370E0AD
:1006300080E090E086DE60E070E0CB01C5DE6BEB31
:1006400070E080E090E07DDE6AE270E080E090E0C3
:10065000BBDE63EC70E080E090E073DE6AE070E0A7
:1006600080E090E0B1DE64EC70E080E090E069DE74
:1006700060E270E080E090E0A7DE66EC70E080E091
:1006800090E05FDE6FE070E080E090E09DDE60ED86
:1006900070E080E090E055DE64EA70E080E090E099
:1006A00093DE62EA70E080E090E08EDE60EE70E063
:1006B00080E090E046DE60ED70E080E090E084DE77
:1006C00060E070E0CB0180DE62E070E080E090E00E
:1006D0007BDE67E070E080E090E076DE6AE070E06C
:1006E00080E090E071DE68E270E080E090E06CDE37
:1006F00062E370E080E090E067DE64E470E080E058
:1007000090E062DE62E470E080E090E05DDE66E052
:1007100070E080E090E058DE6EE070E080E090E015
:1007200053DE62E170E080E090E04EDE64E170E074
:1007300080E090E049DE67E170E080E090E044DE38
:1007400061EE70E080E090E0FCDD60ED70E080E064
:1007500090E03ADE60E070E0CB0136DE62E070E00F
:1007600080E090E031DE67E070E080E090E02CDE39
:100770006AE070E080E090E027DE68E270E080E010
:1007800090E022DE61E370E080E090E01DDE64E551
:1007900070E080E090E018DE67E470E080E090E0D8
:1007A00013DE6EE070E080E090E00EDE6CE170E061
:1007B00080E090E009DE67E170E080E090E004DE38
:1007C0006BE170E080E090E0FFDD6EE170E080E0E2
:1007D00090E0FADD2FE331E04FEE50E060E070E0B2
:1007E00080E090E01DD003D0DF91CF910895CF93AA
:1007F000DF93CDB7DEB761E170E080E090E0A1DD8E
:1008000088E790E085DC69E270E080E090E099DDC7
:100810006CE270E080E090E094DDDF91CF9108958C
:10082000CF93DF93CDB7DEB728970FB6F894DEBF2E
:100830000FBECDBF9A8389837C836B835E834D8398
:1008400038872F836AE270E080E090E07ADD89816A
:100850009A81892F990F990BAA2797FDA095BA2FF6
:10086000BC01CD01B1DD89819A81AA2797FDA095B0
:10087000BA2FBC01CD01A8DD8D819E81892F990FF2
:10088000990BAA2797FDA095BA2FBC01CD019CDD3D
:100890008D819E81AA2797FDA095BA2FBC01CD011D
:1008A00093DD6BE270E080E090E04BDD8B819C811A
:1008B000892F990F990BAA2797FDA095BA2FBC01F4
:1008C000CD0182DD8B819C81AA2797FDA095BA2F4F
:1008D000BC01CD0179DD8F819885892F990F990B06
:1008E000AA2797FDA095BA2FBC01CD016DDD8F81A0
:1008F0009885AA2797FDA095BA2FBC01CD0164DD8C
:1009000028960FB6F894DEBF0FBECDBFDF91CF9112
:100910000895CF93DF93CDB7DEB781E390E021E078
:10092000FC012083DF91CF910895CF93DF9300D016
:100930001F92CDB7DEB71A82198265C01C821B8256
:1009400057C089819A81883121E0920728F060E0C0
:1009500070E0CB017CDD47C089819A81803F9105A1
:1009600030F06FE170E080E090E071DD3CC08981A3
:100970009A81883C910530F060EE77E080E090E06D
:1009800066DD31C089819A81803A910530F06FEF40
:1009900077E080E090E05BDD26C089819A8188372E
:1009A000910530F060E078EF80E090E050DD1BC012
:1009B00089819A818035910530F06FE178EF80E090
:1009C00090E045DD10C089819A818832910530F030
:1009D00060EE7FEF80E090E03ADD05C06FEF7FEFE3
:1009E00080E090E034DD8B819C8101969C838B8339
:1009F0008B819C81803F910508F4A3CF89819A81E6
:100A000001969A83898389819A81803421E09207B3
:100A100008F494CF0F900F900F900F90DF91CF912B
:100A20000895CF93DF93CDB7DEB7CE50D2400FB647
:100A3000F894DEBF0FBECDBF1A82198218861F82BE
:100A40001A8619861B821C821D821E820E94BB1080
:100A5000DC01CB018B879C87AD87BE878B859C850E
:100A6000AD85BE858F3F9105A105B10510F481E0EC
:100A70007CC12091060230910702CE010F96AC0195
:100A800060E070E0CB01F9011995882311F081E055
:100A90006CC1CE010F969A838983CE010F96825442
:100AA0009E4F9A87898789859A85FC0180859185E3
:100AB000A285B3858B839C83AD83BE838B859C8508
:100AC000AD85BE859C01AD01012E19E05695479577
:100AD000379527951A95D1F7102D8B819C81AD8183
:100AE000BE8182179307A407B50728F01B821C82DA
:100AF0001D821E823EC02091060230910702898528
:100B00009A85FC0180859185A285B385AE01415F00
:100B10005F4FBC01CD01F9011995882311F081E0E7
:100B200024C1CE010F969A83898389819A81FC0121
:100B30008081893EF1F089819A81FC0180818B3E20
:100B4000C1F01B821C821D821E8220910602309100
:100B50000702CE010F96AC0160E070E0CB01F90115
:100B60001995882311F081E000C1CE010F969A8378
:100B7000898389819A81FC018081893E41F0898144
:100B80009A81FC0180818B3E11F081E0EEC0898169
:100B90009A810B9698878F838F819885FC01838536
:100BA00094850097C1F0109251028F819885FC01C5
:100BB00083859485909353028093520282E090E063
:100BC000A0E0B0E080935A0290935B02A0935C0295
:100BD000B0935D021DC081E0809351028F819885A2
:100BE000FC01818D928DA38DB48D909353028093DF
:100BF00052028F819885FC0181A192A1A3A1B4A189
:100C000080935A0290935B02A0935C02B0935D02C2
:100C10008F819885FC018081918190935902809306
:100C200058028F819885FC018281882F90E09093F3
:100C30004802809347028F819885FC0183819481CB
:100C40009C0140E050E08B819C81AD81BE81820F90
:100C5000931FA41FB51F80934D0290934E02A09343
:100C60004F02B09350028F819885FC018681978155
:100C7000CC01A0E0B0E08093430290934402A093A3
:100C80004502B09346028091430290914402A091A4
:100C90004502B0914602880F991FAA1FBB1F880FFB
:100CA000991FAA1FBB1F880F991FAA1FBB1F880F60
:100CB000991FAA1FBB1F880F991FAA1FBB1F072EB2
:100CC00079E0B695A795979587957A95D1F7702D88
:100CD0008093540290935502A0935602B09357020A
:100CE0008F819885FC018581482F50E02091520228
:100CF00030915302429FC001439F900D529F900D2F
:100D000011249C0140E050E080914D0290914E02F0
:100D1000A0914F02B0915002820F931FA41FB51FE4
:100D200080933F0290934002A0934102B09342020D
:100D300020913F0230914002409141025091420285
:100D40008091540290915502A0915602B0915702A1
:100D5000820F931FA41FB51F8093490290934A02EC
:100D6000A0934B02B0934C0280E0C25FDD4F0FB600
:100D7000F894DEBF0FBECDBFDF91CF910895CF9322
:100D8000DF93CDB7DEB72C970FB6F894DEBF0FBE5A
:100D9000CDBF6D837E838F8398875A8749873C8731
:100DA0002B878D819E81AF81B8859C01AD0122503A
:100DB0003109410951098091470290914802CC01C3
:100DC000A0E0B0E0BC01CD010E94F5119B01AC0197
:100DD0008091490290914A02A0914B02B0914C023D
:100DE000820F931FA41FB51F89839A83AB83BC8393
:100DF000E0910602F091070289859A859C0140E006
:100E000050E089819A81AB81BC81820F931FA41F1E
:100E1000B51F2B853C85A901BC01CD0119958823FF
:100E200011F081E001C080E02C960FB6F894DEBF8F
:100E30000FBECDBFDF91CF910895CF93DF93CDB794
:100E4000DEB7CC50D2400FB6F894DEBF0FBECDBF98
:100E50009E01275F3D4FF9016083718382839383F5
:100E6000809151028823A9F0CE01875F9D4FFC013C
:100E700080819181A281B381689416F8B695A79577
:100E8000979587951694D1F78D839E83AF83B88706
:100E900010C0CE01875F9D4FFC0180819181A281AE
:100EA000B381892F9A2FAB2FBB278D839E83AF836E
:100EB000B887CE01875F9D4FFC0180819181A2811F
:100EC000B38182309105A105B10528F488EF9FEF29
:100ED000AFEFBFE079C020914D0230914E024091BA
:100EE0004F02509150028D819E81AF81B885820F53
:100EF000931FA41FB51F89839A83AB83BC83209162
:100F0000060230910702AE01475F5F4F89819A81E7
:100F1000AB81BC81BC01CD01F9011995882329F071
:100F200088EF9FEFAFEFBFE04FC080915102882361
:100F300029F1CE01875F9D4FFC0180819181A281C3
:100F4000B3818F779927AA27BB278D839E83AF8391
:100F5000B8878D819E81880F991F880F991F9E01E8
:100F6000275F3F4F820F931FFC0180819181A281F7
:100F7000B38189839A83AB83BC8322C0CE01875F10
:100F80009D4FFC0180819181A281B3819927AA277D
:100F9000BB278D839E83AF83B8878D819E81880F09
:100FA000991F9E01275F3F4F820F931FFC01808195
:100FB0009181CC01A0E0B0E089839A83AB83BC83AC
:100FC00089819A81AB81BC81BC01CD01C45FDD4FB9
:100FD0000FB6F894DEBF0FBECDBFDF91CF9108955D
:100FE000CF93DF93CDB7DEB768970FB6F894DEBF27
:100FF0000FBECDBF698B7A8B8B8B9C8B5E8B4D8BA1
:10100000388F2F8B1A86198689899A89AB89BC8972
:101010000097A105B10509F00BC180915102882309
:1010200009F006C180E092E00E941D129C878B8728
:101030008B859C85009719F481E090E051C21D8258
:10104000DFC0E0910602F09107028D81282F30E089
:1010500040E050E080913F0290914002A091410217
:10106000B0914202820F931FA41FB51F2B853C85B0
:10107000A901BC01CD011995882339F08B859C8588
:101080000E94B51281E090E02BC21F821E82AEC08A
:101090002B853C858E819F81820F931F9A8789873C
:1010A00089859A85FC01808121E0882309F420E06C
:1010B00089859A85FC01908181E0953E09F480E064
:1010C0008223282F30E089859A85FC01938581E071
:1010D0009F3009F480E0882F90E0822393230097CB
:1010E00009F47FC018861CC08885282F30E08E81C7
:1010F0009F81820F931F2B853C85820F931FFC01DC
:1011000040818885882F90E02D893E89820F931F2A
:10111000FC018081481709F006C088858F5F8887A9
:1011200088858B3008F388858B3009F05AC0898513
:101130009A85FC01828D938D9C0140E050E0898569
:101140009A85FC0184899589CC01A0E0B0E0DC019E
:1011500099278827820F931FA41FB51F2F89388DC9
:10116000F90180839183A283B38389859A85FC01E9
:10117000848D958DA68DB78D2F89388DF901848347
:101180009583A683B78389859A85FC0123858F89FA
:10119000988DFC0120878D81282F30E040E050E0C1
:1011A00080913F0290914002A0914102B091420291
:1011B000820F931FA41FB51F2F89388DF9018187D6
:1011C0009287A387B4878F89988D2E813F81FC01F8
:1011D000368725878B859C850E94B51280E090E03C
:1011E0007FC18E819F8180969F838E838E819F8118
:1011F0008115F2E09F0708F44BCF8D818F5F8D83BF
:101200008D81282F30E040E050E080915402909191
:101210005502A0915602B0915702281739074A0784
:101220005B0708F40ECF8B859C850E94B51256C1D2
:1012300089899A89AB89BC8989839A83AB83BC836A
:1012400089819A81AB81BC819C01AD012250310919
:10125000410951098091470290914802CC01A0E0D8
:10126000B0E0BC01CD010E94F5119B01AC01809161
:10127000490290914A02A0914B02B0914C02820F18
:10128000931FA41FB51F8D879E87AF87B88B80E003
:1012900092E00E941D129C878B878B859C8500970E
:1012A00019F481E090E01CC11D82D7C0E0910602D4
:1012B000F09107028D81282F30E040E050E08D85CD
:1012C0009E85AF85B889820F931FA41FB51F2B85FC
:1012D0003C85A901BC01CD011995882339F08B8586
:1012E0009C850E94B51281E090E0FAC01F821E82A8
:1012F000AAC02B853C858E819F81820F931F9A8780
:10130000898789859A85FC01808121E0882309F4F9
:1013100020E089859A85FC01908181E0953E09F461
:1013200080E08223282F30E089859A85FC0193850F
:1013300081E09F3009F480E0882F90E0822393239E
:10134000009709F47BC018861CC08885282F30E0E0
:101350008E819F81820F931F2B853C85820F931F67
:10136000FC0140818885882F90E02D893E89820F7D
:10137000931FFC018081481709F006C088858F5FA4
:10138000888788858B3008F388858B3009F056C0B4
:1013900089859A85FC01828D938D9C0140E050E007
:1013A00089859A85FC0184899589CC01A0E0B0E00B
:1013B000DC0199278827820F931FA41FB51F2F894F
:1013C000388DF90180839183A283B38389859A85BF
:1013D000FC01848D958DA68DB78D2F89388DF901EF
:1013E00084839583A683B78389859A85FC012385A9
:1013F0008F89988DFC0120878D81282F30E040E077
:1014000050E08D859E85AF85B889820F931FA41FFC
:10141000B51F2F89388DF90181879287A387B487FB
:101420008F89988D2E813F81FC01368725878B859A
:101430009C850E94B51280E090E052C08E819F8111
:1014400080969F838E838E819F818115F2E09F0716
:1014500008F44FCF8D818F5F8D838D81282F30E0F1
:1014600080914702909148022817390708F41ECF4F
:101470008B859C850E94B51289819A81AB81BC8144
:10148000BC01CD01DADCDC01CB0189839A83AB831B
:10149000BC8389819A81AB81BC818F3F2FEF9207FA
:1014A000A2072FE0B207D1F089819A81AB81BC817C
:1014B000883FEFEF9E07AE07EFE0BE0779F080911F
:1014C0005102882351F489819A81AB81BC818F3F7D
:1014D000FFEF9F07A105B10509F0B2CE81E090E0D2
:1014E00068960FB6F894DEBF0FBECDBFDF91CF91E7
:1014F0000895CF93DF93CDB7DEB766970FB6F89414
:10150000DEBF0FBECDBF9E8B8D8B8D899E899A834A
:1015100089831B821E821F82188619868091510240
:10152000882361F080915A0290915B02A0915C0245
:10153000B0915D028E839F83A887B98789819A8144
:10154000FC0180818C3529F081E090E0A0E0B0E0E2
:101550001FC10EC089819A81FC0180818C3519F4EC
:101560008B818F5F8B8389819A8101969A8389838E
:1015700089819A81FC018081882361F78D899E8908
:101580009A8389831C8278C089819A8101969A8383
:1015900089831D820EC08D81882F90E09E01265F79
:1015A0003F4F820F931F20E2FC0120838D818F5FCC
:1015B0008D838D818B3078F31D8236C089819A812D
:1015C000FC0180818136D8F089819A81FC0180817B
:1015D0008B37A8F48D81282F30E089819A81AC0166
:1015E0004F5F5F4F5A834983FC01808140EE480F73
:1015F000CE010A96820F931FFC01408312C08D8199
:10160000282F30E089819A81AC014F5F5F4F5A8368
:101610004983FC014081CE010A96820F931FFC0191
:1016200040838D818F5F8D8389819A81FC018081C8
:101630008C3521F6AE01465F5F4F8E819F81A88574
:10164000B98520E332E0BC01CD01CADC009729F066
:1016500081E090E0A0E0B0E09BC0809130029091EA
:101660003102A0913202B09133028E839F83A8870A
:10167000B9878C818F5F8C838C81282F30E08B81A0
:10168000882F90E00197281739070CF47DCF8981C6
:101690009A8101969A8389831D820EC08D81882F3D
:1016A00090E09E01265F3F4F820F931F20E2FC01D6
:1016B00020838D818F5F8D838D818B3078F31D82A8
:1016C00036C089819A81FC0180818136D8F0898178
:1016D0009A81FC0180818B37A8F48D81282F30E01E
:1016E00089819A81AC014F5F5F4F5A834983FC0126
:1016F000808140EE480FCE010A96820F931FFC01B5
:10170000408312C08D81282F30E089819A81AC01FD
:101710004F5F5F4F5A834983FC014081CE010A9697
:10172000820F931FFC0140838D818F5F8D838981A0
:101730009A81FC018081882321F68D81882329F4F8
:101740008E819F81A885B98523C0AE01465F5F4F1A
:101750008E819F81A885B98520E332E0BC01CD014F
:101760003FDC009729F081E090E0A0E0B0E010C0FD
:101770008091300290913102A0913202B0913302F7
:101780008E839F83A887B9878E819F81A885B9851D
:10179000BC01CD0166960FB6F894DEBF0FBECDBF7B
:1017A000DF91CF910895CF93DF9300D01F921F92C6
:1017B000CDB7DEB79B838A837D836C83198215C086
:1017C0008981882F90E02981222F30E04C815D8132
:1017D000240F351FF90140812A813B81820F931F1D
:1017E000FC01408389818F5F89838981883040F340
:1017F000198218C08981882F90E02981222F30E03A
:101800004C815D81240F351F285F3F4FF9014081D6
:101810002A813B81820F931F0896FC0140838981B6
:101820008F5F89838981833028F38C819D81FC01BE
:1018300023858A819B81FC0123878C819D81FC010A
:1018400024858A819B81FC0124878C819D81FC01F8
:1018500025858A819B81FC012587198218C0898191
:10186000882F90E02981222F30E04C815D81240F68
:10187000351F225F3F4FF90140812A813B81820F52
:10188000931F0E96FC01408389818F5F8983898134
:10189000823028F3198218C08981882F90E029812D
:1018A000222F30E04C815D81240F351F205F3F4F98
:1018B000F90140812A813B81820F931F4096FC01F0
:1018C000408389818F5F89838981823028F31982DF
:1018D00018C08981882F90E02981222F30E04C8127
:1018E0005D81240F351F2E5E3F4FF90140812A8113
:1018F0003B81820F931F4296FC01408389818F5F59
:1019000089838981823028F38C819D81FC0124891F
:1019100035898A819B81FC01358B248B198218C003
:101920008981882F90E02981222F30E04C815D81D0
:10193000240F351F2A5E3F4FF90140812A813B81E8
:10194000820F931F4696FC01408389818F5F8983B4
:101950008981823028F3198218C08981882F90E00C
:101960002981222F30E04C815D81240F351F285EB4
:101970003F4FF90140812A813B81820F931F489696
:10198000FC01408389818F5F89838981823028F3BC
:101990008C819D81FC01228D338D8A819B81FC018C
:1019A000338F228F8C819D81FC01848D958DA68D36
:1019B000B78D2A813B81F901848F958FA68FB78FD0
:1019C0000F900F900F900F900F90DF91CF9108958F
:1019D000CF93DF93CDB7DEB76B970FB6F894DEBF2A
:1019E0000FBECDBF9F8B8E8B798F688F5B8F4A8F99
:1019F000198618861B861A868E899F897ADDDC01F6
:101A0000CB018C879D87AE87BF878C859D85AE85F2
:101A1000BF8581309105A105B10511F481E0E2C1D6
:101A20008C859D85AE85BF850097A105B10509F020
:101A3000BEC080915102882309F0B9C080E092E0D5
:101A4000FCD4998B888B88899989009711F481E05F
:101A5000C9C11D8295C0E0910602F09107028D81F7
:101A6000282F30E040E050E080913F02909140020A
:101A7000A0914102B0914202820F931FA41FB51F93
:101A800028893989A901BC01CD011995882329F03C
:101A9000888999896AD581E0A5C11F821E8266C0A6
:101AA000288939898E819F81820F931F9B878A871E
:101AB0008A859B85FC01808121E08E3209F420E03B
:101AC0008A859B85FC01908181E0992309F480E05F
:101AD0008223282F30E08A859B85FC01908181E05C
:101AE000953E09F480E0882F90E0282339238A85E9
:101AF0009B85FC01938581E09F3009F480E0882F6D
:101B000090E082239323009761F18A859B85FC01F5
:101B10008085823431F58A859B85FC0181858934F5
:101B200001F58A859B85FC0182858E34D1F42A8556
:101B30003B85888D998DB90136DE8885998501961A
:101B4000998788878A8D9B8DFC01208131818885CA
:101B500099852817390729F48889998906D580E05D
:101B600041C18E819F8180969F838E838E819F81CC
:101B70008115F2E09F0708F493CF8D818F5F8D83ED
:101B80008D81282F30E040E050E080915402909108
:101B90005502A0915602B0915702281739074A07FB
:101BA0005B0708F458CF88899989DFD40CC18C85EC
:101BB0009D85AE85BF8589839A83AB83BC838981EC
:101BC0009A81AB81BC819C01AD0122503109410950
:101BD00051098091470290914802CC01A0E0B0E009
:101BE000BC01CD0102D49B01AC01809149029091CE
:101BF0004A02A0914B02B0914C02820F931FA41F86
:101C0000B51F8A8B9B8BAC8BBD8B80E092E015D48B
:101C1000998B888B88899989009711F481E0E2C0BB
:101C20001D8291C0E0910602F09107028D81282F5C
:101C300030E040E050E08A899B89AC89BD89820F01
:101C4000931FA41FB51F28893989A901BC01CD01A3
:101C50001995882329F08889998987D481E0C2C0A1
:101C60001F821E8266C0288939898E819F81820FDA
:101C7000931F9B878A878A859B85FC01808121E051
:101C80008E3209F420E08A859B85FC01908181E0F9
:101C9000992309F480E08223282F30E08A859B85F0
:101CA000FC01908181E0953E09F480E0882F90E06E
:101CB000282339238A859B85FC01938581E09F3009
:101CC00009F480E0882F90E082239323009761F14C
:101CD0008A859B85FC018085823431F58A859B85C8
:101CE000FC018185893401F58A859B85FC0182850B
:101CF0008E34D1F42A853B85888D998DB90153DDC9
:101D0000888599850196998788878A8D9B8DFC01A6
:101D100020813181888599852817390729F4888998
:101D2000998923D480E05EC08E819F8180969F83B5
:101D30008E838E819F818115F2E09F0708F493CFF7
:101D40008D818F5F8D838D81282F30E080914702B8
:101D5000909148022817390708F464CF8889998937
:101D600004D489819A81AB81BC81BC01CD0165D845
:101D7000DC01CB0189839A83AB83BC8389819A81FF
:101D8000AB81BC818F3F2FEF9207A2072FE0B207F4
:101D9000D1F089819A81AB81BC81883FEFEF9E07AA
:101DA000AE07EFE0BE0779F080915102882351F42D
:101DB00089819A81AB81BC818F3FFFEF9F07A1058D
:101DC000B10509F0FCCE8A8D9B8DFC01808191814B
:101DD000009739F48A8D9B8D28853985FC013183E4
:101DE000208380E06B960FB6F894DEBF0FBECDBFA8
:101DF000DF91CF910895CF93DF93CDB7DEB78CE419
:101E000090E023E5FC0120838DE490E02DE430E0B8
:101E1000F90120812E7FFC012083DF91CF9108956D
:101E2000CF93DF93CDB7DEB78CE490E020E5FC01E3
:101E300020838DE490E02DE430E0F90120812160E1
:101E4000FC012083DF91CF910895CF93DF93CDB72D
:101E5000DEB784E290E024E230E0F90120812760DF
:101E6000FC012083C8DFDCDFDF91CF910895CF93A1
:101E7000DF931F92CDB7DEB789838EE490E029818E
:101E8000FC01208300008DE490E0FC018081882328
:101E9000D4F78EE490E0FC0180810F90DF91CF9128
:101EA0000895CF93DF931F92CDB7DEB7198286E6F0
:101EB00090E0FC011082C9DF85E290E025E230E08D
:101EC000F90120812160FC01208307C089818F5F97
:101ED000898389818F3F09F4EACF71D08823B1F7D4
:101EE00086E690E02FEFFC0120838FEF9FEF0E94AA
:101EF00088000E941105882309F0D9CF0F90DF9147
:101F0000CF910895CF93DF93CDB7DEB727970FB664
:101F1000F894DEBF0FBECDBF8B834C835D836E8391
:101F20007F8319828FEFA3DF85E290E025E230E026
:101F3000F90120812E7FFC0120838B81806497DF53
:101F40008C819D81AE81BF818B2F9927AA27BB27CA
:101F50008EDF8C819D81AE81BF81CD01AA27BB27F9
:101F600086DF8C819D81AE81BF81892F9A2FAB2F17
:101F7000BB277DDF8C817BDF85E979DF07C0898125
:101F800091E0980F99838F3F09F406C08FEF6FDFC0
:101F90008A838A818F3F99F385E290E025E230E0E1
:101FA000F90120812160FC0120838A8127960FB6E8
:101FB000F894DEBF0FBECDBFDF91CF910895CF93D0
:101FC000DF9300D01F921F92CDB7DEB71D821A8219
:101FD0008FEF9FEF9C838B830EDF198205C08FEFFD
:101FE00046DF89818F5F898389818A30C0F340E031
:101FF00050E0BA0180E086DF8D838A818F5F8A831B
:102000008A818F3F11F481E02EC08D81813029F7C4
:1020100000008B819C819C01215031093C832B83E2
:102020000097B9F71A8240E050E0BA0181E06ADF18
:102030008D838A818F5F8A838A818F3F11F481E04B
:1020400012C08D81882379F7EBDE40E050E0BA01C1
:102050008BE358DF8D8340E052E060E070E080E188
:1020600051DF8D8380E00F900F900F900F900F90B5
:10207000DF91CF9108950F931F93CF93DF93CDB747
:10208000DEB72B970FB6F894DEBF0FBECDBF6E83C1
:102090007F83888799875B874A871C821B828E8112
:1020A0009F81A885B985072E79E0880F991FAA1FFF
:1020B000BB1F7A95D1F7702DAC01BD0181E122DF04
:1020C0008D838D81882311F08D814AC085E290E057
:1020D00025E230E0F90120812E7FFC01208316C02B
:1020E0008B819C819C012F5F3F4F3C832B83893EDA
:1020F000F3E09F0758F085E290E025E230E0F90137
:1021000020812160FC01208381E02AC08FEFAFDEB7
:102110008E3F31F71A8219820FC00A851B85C801CC
:1021200001969B878A878FEFA2DEF80180838981E1
:102130009A8101969A83898389819A818115F2E037
:102140009F0758F38FEF93DE8FEF91DE85E290E0EB
:1021500025E230E0F90120812160FC01208380E04C
:102160002B960FB6F894DEBF0FBECDBFDF91CF9197
:102170001F910F910895CF93DF93CDB7DEB7699785
:102180000FB6F894DEBF0FBECDBF40E050E0BA01FD
:1021900089E0B8DE89838981882331F08981882F9D
:1021A00090E0A0E0B0E0C8C085E290E025E230E039
:1021B000F90120812E7FFC01208300008FEF57DE84
:1021C0008E3FE1F71B821A8211C08FEF50DE482F3D
:1021D0009E01265F3F4F8A819B81820F931FFC01E6
:1021E00040838A819B8101969B838A838A819B811C
:1021F0008031910550F38FEF3ADE8FEF38DE8FEFAD
:1022000036DE85E290E025E230E0F90120812160B0
:10221000FC0120838889882F90E0837099279B8315
:102220008A838A819B81982F88279B838A838989C7
:10223000882F90E02A813B81820F931F9B838A83A2
:102240008A819B81880F991F880F991F9B838A839E
:102250008A898295869586958370882F90E0992744
:102260002A813B81820F931F9B838A838B89837092
:1022700089838981880F89838C89881F8827881F93
:102280009981890F898389818E5F898381E090E0BC
:102290009D838C8309C08C819D81880F991F9D83AC
:1022A0008C8389818150898389818823A1F78A81E0
:1022B0009B8101969C0140E050E08C819D81CC0186
:1022C000A0E0B0E0BC01CD0190D0DC01CB018E8359
:1022D0009F83A887B9878F85882F90E08F70992773
:1022E0009B838A8381E090E09D838C830BC08C81EB
:1022F0009D81880F991F9D838C838A819B81019783
:102300009B838A838A819B81009789F78C819D8139
:10231000CC01A0E0B0E02E813F8148855985BC0109
:10232000CD0163D0DC01CB018E839F83A887B98761
:102330008E819F81A885B985BC01CD0169960FB6B4
:10234000F894DEBF0FBECDBFDF91CF910895CF933C
:10235000DF93CDB7DEB781E290E02FEFFC01208361
:1023600084E290E0FC01108287E290E02FEFFC0114
:1023700020838AE290E02FE0FC0120838DE290E050
:102380002FEFFC01208380E390E02FEFFC012083FE
:1023900082E290E0FC01108285E290E020E2FC0104
:1023A000208388E290E0FC0110828BE290E020EF35
:1023B000FC0120838EE290E0FC01108288E290E034
:1023C00028E230E0F90120812160FC0120830E9495
:1023D00089040E94B4020E94950484E690E00E9461
:1023E00088005FDD0E94A900FFCFDB018F939F93E0
:1023F0000BD0BF91AF91A29F800D911DA39F900D17
:10240000B29F900D1124089509D0A59F900DB49FFF
:10241000900DA49F800D911D11240895A29FB001DD
:10242000B39FC001A39F700D811D1124911DB29F08
:10243000700D811D1124911D0895CF93DF9382307B
:10244000910510F482E090E0E0916002F091610269
:1024500020E030E0A0E0B0E0309739F140815181D8
:1024600048175907B8F04817590771F482819381CA
:10247000109729F013969C938E9312972CC09093EB
:1024800061028093600227C02115310531F04217A7
:10249000530718F0A901DB0101C0EF019A01BD014A
:1024A000DF010280F381E02DD7CF21153105F9F04E
:1024B000281B390B2430310580F48A819B816115FA
:1024C000710521F0FB019383828304C09093610224
:1024D00080936002FE01329644C0FE01E20FF31FBA
:1024E0008193919322503109398328833AC02091F6
:1024F0005E0230915F02232B41F420910202309161
:10250000030230935F0220935E022091000230911B
:1025100001022115310541F42DB73EB74091040267
:1025200050910502241B350BE0915E02F0915F0291
:10253000E217F307A0F42E1B3F0B2817390778F09A
:10254000AC014E5F5F4F2417350748F04E0F5F1FF9
:1025500050935F0240935E028193919302C0E0E04A
:10256000F0E0CF01DF91CF910895CF93DF930097F3
:1025700009F487C0FC01329713821282C091600275
:10258000D0916102209781F420813181280F391F79
:1025900080915E0290915F028217930779F5F09324
:1025A0005F02E0935E026DC0DE0120E030E0AE1716
:1025B000BF0750F412964D915C9113979D01411500
:1025C000510509F1DA01F3CFB383A2834081518130
:1025D000840F951F8A179B0771F48D919C91119719
:1025E000840F951F02969183808312968D919C9102
:1025F0001397938382832115310529F4F0936102A7
:10260000E09360023EC0D9011396FC93EE931297BB
:102610004D915D91A40FB51FEA17FB0779F48081F6
:102620009181840F951F0296D90111969C938E93E8
:102630008281938113969C938E931297E0E0F0E051
:102640008A819B81009719F0FE01EC01F9CFCE0140
:10265000029628813981820F931F20915E0230916A
:102660005F022817390769F4309729F41092610244
:102670001092600202C013821282D0935F02C09354
:0C2680005E02DF91CF910895F894FFCF27
:10268C000000620220003B105C6261746368000011
:00000001FF
