:1000000065C0000084C0000082C0000080C0000005
:100010007EC000007CC000007AC0000078C00000F4
:1000200076C0000074C0000072C0000070C0000004
:100030006EC000006CC000006AC0000068C0000014
:1000400066C0000064C0000062C0000060C0000024
:100050005EC000005CC000005AC0000058C0000034
:1000600056C0000054C0000052C0000050C0000044
:100070004EC000004CC000004AC0000048C0000054
:1000800046C0000044C0000042C0000040C0000064
:100090003EC000003CC000003AC0000038C0000074
:1000A00036C0000034C0000032C0000030C0000084
:1000B0002EC000002CC000002AC0000028C0000094
:1000C00026C0000024C0000022C0000011241FBE72
:1000D000CFEFD1E2DEBFCDBF00E00CBF12E0A0E069
:1000E000B2E0E2E0F6E200E00BBF02C007900D9242
:1000F000A031B107D9F722E0A0E1B2E001C01D9222
:10010000A436B207E1F70E945F110C94FF1278CF7A
:10011000CF93DF9300D0CDB7DEB79B838A830AC02D
:100120008BE0898304C000008981815089838981A3
:100130008823C9F78A819B819C01215031093B8327
:100140002A83009769F70F900F900F90DF91CF915E
:100150000895CF93DF93CDB7DEB76AE270E080E019
:1001600090E023D160E070E0CB0181D160E070E0ED
:10017000CB017DD160E070E0CB0179D16FEE70E012
:1001800080E090E074D16BE270E080E090E00DD10F
:1001900060E070E0CB016BD160E070E0CB0167D133
:1001A00061E070E080E090E062D16FE370E080E0B9
:1001B00090E05DD1DF91CF910895CF93DF93CDB7DC
:1001C000DEB764970FB6F894DEBF0FBECDBF81E0F7
:1001D00090E09C8B8B8B81E090E09E878D8788E000
:1001E00092E0988B8F878F85988940E352E060E199
:1001F00072E00E94A00C8091300290913102009731
:1002000009F4CAC080E092E00E94D8119A8B898BD1
:1002100089899A89009709F4BFC08BD19E012D5E10
:100220003F4F8F859889A90160E172E00E94A00C80
:1002300080912A0290912B029C0140E050E0809135
:10024000240290912502CC01A0E0B0E0DC019927C6
:100250008827820F931FA41FB51F8C839D83AE83B5
:10026000BF8318868885482F50E029893A898C8178
:100270009D81AE81BF81BC01CD0139D580E09CE27A
:10028000A1E0B0E089879A87AB87BC871B821A827E
:100290008A819B81880F991F29893A89820F931F30
:1002A000FC0180819181CC01A0E0B0E0BC01CD01D6
:1002B000DED089859A85AB85BC850197A109B109F6
:1002C00089879A87AB87BC878A819B8101969B83AC
:1002D0008A8389859A85AB85BC850097A105B10580
:1002E00039F400008D859E85009709F451C031C016
:1002F0008A819B818115F1E09F0751F588858F5F89
:1003000088878885282F30E08091490290914A02A1
:100310002817390771F48C819D81AE81BF81BC01A2
:10032000CD0143D5DC01CB018C839D83AE83BF839C
:1003300018868885482F50E029893A898C819D81CB
:10034000AE81BF81BC01CD01D2D41B821A82A0CF65
:100350009FCF198206C080E091E0DADE89818F5F4D
:10036000898389818E31B8F38B899C8901969C8B16
:100370008B8B2B893C8980913002909131028217BE
:10038000930728F481E090E09C8B8B8B46CF45CF80
:1003900089899A890E94701264960FB6F894DEBF1C
:1003A0000FBECDBFDF91CF910895CF93DF9300D0E3
:1003B0001F92CDB7DEB769837A838B839C838BE2F0
:1003C00090E02BE230E0F90120812260FC012083E3
:1003D00088E290E028E230E0F90120812F7EFC01E4
:1003E000208388E290E028E230E0F90120812F7735
:1003F000FC0120832EE230E089819A81AB81BC81AF
:10040000892F9A2FAB2FBB27F901808382E290E0DE
:100410002981FC01208388E290E028E230E0F901A4
:1004200020812F7BFC01208388E290E028E230E0ED
:10043000F90120812064FC01208388E290E028E219
:1004400030E0F90120812061FC01208300008BE273
:1004500090E02BE230E0F90120812D7FFC01208328
:100460000F900F900F900F90DF91CF910895CF9341
:10047000DF9300D01F92CDB7DEB769837A838B8379
:100480009C838BE290E02BE230E0F9012081246034
:10049000FC01208388E290E028E230E0F90120812D
:1004A0002F7EFC01208388E290E028E230E0F90111
:1004B00020812068FC0120832EE230E089819A812E
:1004C000AB81BC81892F9A2FAB2FBB27F901808389
:1004D00082E290E02981FC01208388E290E028E21A
:1004E00030E0F90120812F7BFC01208388E290E03D
:1004F00028E230E0F90120812064FC01208388E2B9
:1005000090E028E230E0F90120812061FC012083A5
:1005100000008BE290E02BE230E0F90120812B7F9C
:10052000FC0120830F900F900F900F90DF91CF91DF
:100530000895CF93DF9300D01F92CDB7DEB709DEC9
:100540001A82198217C01C821B820AC06FE170E0F8
:1005500080E090E08CDF8B819C8101969C838B8373
:100560008B819C81803F910588F389819A810196D6
:100570009A83898389819A81803421E0920718F3D4
:100580000F900F900F900F90DF91CF910895CF9320
:10059000DF93CDB7DEB788E290E028E230E0F901E2
:1005A00020812460FC01208381E090E0B1DD88E2BD
:1005B00090E028E230E0F90120812B7FFC012083CC
:1005C0008AE090E0A5DD88E290E028E230E0F901E1
:1005D00020812460FC01208388E790E099DD88E297
:1005E00090E028E230E0F90120812062FC012083C4
:1005F00062EB70E080E090E0D8DE6CE070E080E0DC
:1006000090E035DF6CE070E080E090E030DF60E0AB
:1006100070E0CB012CDF63E370E080E090E027DF47
:1006200063E370E080E090E022DF67EB70E080E061
:1006300090E0BBDE65E370E080E090E018DF6AE305
:1006400070E080E090E0B1DE65E570E080E090E091
:100650000EDF66E370E080E090E0A7DE60E070E02F
:10066000CB0105DF6BEB70E080E090E09EDE6AE29C
:1006700070E080E090E0FBDE63EC70E080E090E012
:1006800094DE6AE070E080E090E0F1DE64EC70E01F
:1006900080E090E08ADE60E270E080E090E0E7DEFB
:1006A00066EC70E080E090E080DE6FE070E080E07B
:1006B00090E0DDDE60ED70E080E090E076DE64EA00
:1006C00070E080E090E0D3DE62EA70E080E090E0ED
:1006D000CEDE60EE70E080E090E067DE60ED70E01E
:1006E00080E090E0C4DE60E070E0CB01C0DE62E05C
:1006F00070E080E090E0BBDE67E070E080E090E0DA
:10070000B6DE6AE070E080E090E0B1DE68E270E0C2
:1007100080E090E0ACDE62E370E080E090E0A7DE95
:1007200064E470E080E090E0A2DE62E470E080E0EB
:1007300090E09DDE66E070E080E090E098DE6EE0A4
:1007400070E080E090E093DE62E170E080E090E0B5
:100750008EDE64E170E080E090E089DE67E170E0C9
:1007600080E090E084DE61EE70E080E090E01DDEED
:1007700060ED70E080E090E07ADE60E070E0CB0158
:1007800076DE62E070E080E090E071DE67E070E0CD
:1007900080E090E06CDE6AE070E080E090E067DE90
:1007A00068E270E080E090E062DE61E370E080E0AB
:1007B00090E05DDE64E570E080E090E058DE67E4A4
:1007C00070E080E090E053DE6EE070E080E090E06A
:1007D0004EDE6CE170E080E090E049DE67E170E0C1
:1007E00080E090E044DE6BE170E080E090E03FDE8E
:1007F0006EE170E080E090E03ADE6AE270E080E076
:1008000090E0D3DD60E070E0CB0131DE60E070E0CD
:10081000CB012DDE60E070E0CB0129DE6FEE70E0F1
:1008200080E090E024DE6BE270E080E090E0BDDDEF
:1008300060E070E0CB011BDE60E070E0CB0117DE12
:1008400061E070E080E090E012DE6FE370E080E055
:1008500090E00DDE61E170E080E090E0A6DD88E7E9
:1008600090E056DC69E270E080E090E09EDDDF9190
:10087000CF910895CF93DF931F921F92CDB7DEB72C
:100880009A83898381E390E02981FC0120830F9082
:100890000F90DF91CF910895CF93DF9300D01F92F7
:1008A000CDB7DEB756DC1A82198265C01C821B8266
:1008B00057C089819A81883121E0920728F060E051
:1008C00070E0CB01D4DD47C089819A81803F9105DA
:1008D00030F06FE170E080E090E0C9DD3CC08981DC
:1008E0009A81883C910530F060EE77E080E090E0FE
:1008F000BEDD31C089819A81803A910530F06FEF79
:1009000077E080E090E0B3DD26C089819A81883766
:10091000910530F060E078EF80E090E0A8DD1BC04A
:1009200089819A818035910530F06FE178EF80E020
:1009300090E09DDD10C089819A818832910530F068
:1009400060EE7FEF80E090E092DD05C06FEF7FEF1B
:1009500080E090E08CDD8B819C8101969C838B8371
:100960008B819C81803F910508F4A3CF89819A8176
:1009700001969A83898389819A81803421E0920744
:1009800008F494CF0F900F900F900F90DF91CF91BC
:100990000895CF93DF93CDB7DEB7CE50D2400FB6D8
:1009A000F894DEBF0FBECDBF1A82198218861F824F
:1009B0001A8619861B821C821D821E820E94731059
:1009C000DC01CB018B879C87AD87BE878B859C859F
:1009D000AD85BE858F3F9105A105B10510F481E07D
:1009E0007CC12091060230910702CE010F96AC0126
:1009F00060E070E0CB01F9011995882311F081E0E6
:100A00006CC1CE010F969A838983CE010F968254D2
:100A10009E4F9A87898789859A85FC018085918573
:100A2000A285B3858B839C83AD83BE838B859C8598
:100A3000AD85BE859C01AD01012E19E05695479507
:100A4000379527951A95D1F7102D8B819C81AD8113
:100A5000BE8182179307A407B50728F01B821C826A
:100A60001D821E823EC020910602309107028985B8
:100A70009A85FC0180859185A285B385AE01415F91
:100A80005F4FBC01CD01F9011995882311F081E078
:100A900024C1CE010F969A83898389819A81FC01B2
:100AA0008081893EF1F089819A81FC0180818B3EB1
:100AB000C1F01B821C821D821E8220910602309191
:100AC0000702CE010F96AC0160E070E0CB01F901A6
:100AD0001995882311F081E000C1CE010F969A8309
:100AE000898389819A81FC018081893E41F08981D5
:100AF0009A81FC0180818B3E11F081E0EEC08981FA
:100B00009A810B9698878F838F819885FC018385C6
:100B100094850097C1F0109253028F819885FC0153
:100B200083859485909355028093540282E090E0EF
:100B3000A0E0B0E080935C0290935D02A0935E021F
:100B4000B0935F021DC081E0809353028F8198852E
:100B5000FC01818D928DA38DB48D9093550280936D
:100B600054028F819885FC0181A192A1A3A1B4A117
:100B700080935C0290935D02A0935E02B0935F024B
:100B80008F819885FC018081918190935B02809395
:100B90005A028F819885FC018281882F90E0909382
:100BA0004A02809349028F819885FC018381948158
:100BB0009C0140E050E08B819C81AD81BE81820F21
:100BC000931FA41FB51F80934F0290935002A093D0
:100BD0005102B09352028F819885FC0186819781E2
:100BE000CC01A0E0B0E08093450290934602A09330
:100BF0004702B09348028091450290914602A0912D
:100C00004702B0914802880F991FAA1FBB1F880F87
:100C1000991FAA1FBB1F880F991FAA1FBB1F880FF0
:100C2000991FAA1FBB1F880F991FAA1FBB1F072E42
:100C300079E0B695A795979587957A95D1F7702D18
:100C40008093560290935702A0935802B093590292
:100C50008F819885FC018581482F50E020915402B6
:100C600030915502429FC001439F900D529F900DBD
:100C700011249C0140E050E080914F02909150027D
:100C8000A0915102B0915202820F931FA41FB51F71
:100C90008093410290934202A0934302B093440296
:100CA000209141023091420240914302509144020E
:100CB0008091560290915702A0915802B09159022A
:100CC000820F931FA41FB51F80934B0290934C0279
:100CD000A0934D02B0934E0280E0C25FDD4F0FB68D
:100CE000F894DEBF0FBECDBFDF91CF910895CF93B3
:100CF000DF93CDB7DEB72C970FB6F894DEBF0FBEEB
:100D0000CDBF6D837E838F8398875A8749873C87C1
:100D10002B878D819E81AF81B8859C01AD012250CA
:100D20003109410951098091490290914A02CC014F
:100D3000A0E0B0E0BC01CD010E94B0119B01AC016C
:100D400080914B0290914C02A0914D02B0914E02C5
:100D5000820F931FA41FB51F89839A83AB83BC8323
:100D6000E0910602F091070289859A859C0140E096
:100D700050E089819A81AB81BC81820F931FA41FAF
:100D8000B51F2B853C85A901BC01CD011995882390
:100D900011F081E001C080E02C960FB6F894DEBF20
:100DA0000FBECDBFDF91CF910895CF93DF93CDB725
:100DB000DEB7CC50D2400FB6F894DEBF0FBECDBF29
:100DC0009E01275F3D4FF901608371838283938386
:100DD000809153028823A9F0CE01875F9D4FFC01CB
:100DE00080819181A281B381689416F8B695A79508
:100DF000979587951694D1F78D839E83AF83B88797
:100E000010C0CE01875F9D4FFC0180819181A2813E
:100E1000B381892F9A2FAB2FBB278D839E83AF83FE
:100E2000B887CE01875F9D4FFC0180819181A281AF
:100E3000B38182309105A105B10528F488EF9FEFB9
:100E4000AFEFBFE079C020914F0230915002409146
:100E50005102509152028D819E81AF81B885820FDF
:100E6000931FA41FB51F89839A83AB83BC832091F2
:100E7000060230910702AE01475F5F4F89819A8178
:100E8000AB81BC81BC01CD01F9011995882329F002
:100E900088EF9FEFAFEFBFE04FC0809153028823F0
:100EA00029F1CE01875F9D4FFC0180819181A28154
:100EB000B3818F779927AA27BB278D839E83AF8322
:100EC000B8878D819E81880F991F880F991F9E0179
:100ED000275F3F4F820F931FFC0180819181A28188
:100EE000B38189839A83AB83BC8322C0CE01875FA1
:100EF0009D4FFC0180819181A281B3819927AA270E
:100F0000BB278D839E83AF83B8878D819E81880F99
:100F1000991F9E01275F3F4F820F931FFC01808125
:100F20009181CC01A0E0B0E089839A83AB83BC833C
:100F300089819A81AB81BC81BC01CD01C45FDD4F49
:100F40000FB6F894DEBF0FBECDBFDF91CF910895ED
:100F5000CF93DF93CDB7DEB768970FB6F894DEBFB7
:100F60000FBECDBF698B7A8B8B8B9C8B5E8B4D8B31
:100F7000388F2F8B1A86198689899A89AB89BC8903
:100F80000097A105B10509F00BC180915302882398
:100F900009F006C180E092E00E94D8119C878B87FF
:100FA0008B859C85009719F481E090E051C21D82E9
:100FB000DFC0E0910602F09107028D81282F30E01A
:100FC00040E050E08091410290914202A0914302A2
:100FD000B0914402820F931FA41FB51F2B853C853F
:100FE000A901BC01CD011995882339F08B859C8519
:100FF0000E94701281E090E02BC21F821E82AEC060
:101000002B853C858E819F81820F931F9A878987CC
:1010100089859A85FC01808121E0882309F420E0FC
:1010200089859A85FC01908181E0953E09F480E0F4
:101030008223282F30E089859A85FC01938581E001
:101040009F3009F480E0882F90E08223932300975B
:1010500009F47FC018861CC08885282F30E08E8157
:101060009F81820F931F2B853C85820F931FFC016C
:1010700040818885882F90E02D893E89820F931FBB
:10108000FC018081481709F006C088858F5F88873A
:1010900088858B3008F388858B3009F05AC08985A4
:1010A0009A85FC01828D938D9C0140E050E08985FA
:1010B0009A85FC0184899589CC01A0E0B0E0DC012F
:1010C00099278827820F931FA41FB51F2F89388D5A
:1010D000F90180839183A283B38389859A85FC017A
:1010E000848D958DA68DB78D2F89388DF9018483D8
:1010F0009583A683B78389859A85FC0123858F898B
:10110000988DFC0120878D81282F30E040E050E051
:101110008091410290914202A0914302B091440219
:10112000820F931FA41FB51F2F89388DF901818766
:101130009287A387B4878F89988D2E813F81FC0188
:10114000368725878B859C850E94701280E090E011
:101150007FC18E819F8180969F838E838E819F81A8
:101160008115F2E09F0708F44BCF8D818F5F8D834F
:101170008D81282F30E040E050E080915602909120
:101180005702A0915802B0915902281739074A070F
:101190005B0708F40ECF8B859C850E94701256C1A8
:1011A00089899A89AB89BC8989839A83AB83BC83FB
:1011B00089819A81AB81BC819C01AD0122503109AA
:1011C000410951098091490290914A02CC01A0E065
:1011D000B0E0BC01CD010E94B0119B01AC01809137
:1011E0004B0290914C02A0914D02B0914E02820FA1
:1011F000931FA41FB51F8D879E87AF87B88B80E094
:1012000092E00E94D8119C878B878B859C850097E4
:1012100019F481E090E01CC11D82D7C0E091060264
:10122000F09107028D81282F30E040E050E08D855D
:101230009E85AF85B889820F931FA41FB51F2B858C
:101240003C85A901BC01CD011995882339F08B8516
:101250009C850E94701281E090E0FAC01F821E827D
:10126000AAC02B853C858E819F81820F931F9A8710
:10127000898789859A85FC01808121E0882309F48A
:1012800020E089859A85FC01908181E0953E09F4F2
:1012900080E08223282F30E089859A85FC019385A0
:1012A00081E09F3009F480E0882F90E0822393232F
:1012B000009709F47BC018861CC08885282F30E071
:1012C0008E819F81820F931F2B853C85820F931FF8
:1012D000FC0140818885882F90E02D893E89820F0E
:1012E000931FFC018081481709F006C088858F5F35
:1012F000888788858B3008F388858B3009F056C045
:1013000089859A85FC01828D938D9C0140E050E097
:1013100089859A85FC0184899589CC01A0E0B0E09B
:10132000DC0199278827820F931FA41FB51F2F89DF
:10133000388DF90180839183A283B38389859A854F
:10134000FC01848D958DA68DB78D2F89388DF9017F
:1013500084839583A683B78389859A85FC01238539
:101360008F89988DFC0120878D81282F30E040E007
:1013700050E08D859E85AF85B889820F931FA41F8D
:10138000B51F2F89388DF90181879287A387B4878C
:101390008F89988D2E813F81FC01368725878B852B
:1013A0009C850E94701280E090E052C08E819F81E7
:1013B00080969F838E838E819F818115F2E09F07A7
:1013C00008F44FCF8D818F5F8D838D81282F30E082
:1013D0008091490290914A022817390708F41ECFDC
:1013E0008B859C850E94701289819A81AB81BC811A
:1013F000BC01CD01DADCDC01CB0189839A83AB83AC
:10140000BC8389819A81AB81BC818F3F2FEF92078A
:10141000A2072FE0B207D1F089819A81AB81BC810C
:10142000883FEFEF9E07AE07EFE0BE0779F08091AF
:101430005302882351F489819A81AB81BC818F3F0B
:10144000FFEF9F07A105B10509F0B2CE81E090E062
:1014500068960FB6F894DEBF0FBECDBFDF91CF9177
:101460000895CF93DF93CDB7DEB766970FB6F894A4
:10147000DEBF0FBECDBF9E8B8D8B8D899E899A83DB
:1014800089831B821E821F821886198680915302CF
:10149000882361F080915C0290915D02A0915E02D0
:1014A000B0915F028E839F83A887B98789819A81D3
:1014B000FC0180818C3529F081E090E0A0E0B0E073
:1014C0001FC10EC089819A81FC0180818C3519F47D
:1014D0008B818F5F8B8389819A8101969A8389831F
:1014E00089819A81FC018081882361F78D899E8999
:1014F0009A8389831C8278C089819A8101969A8314
:1015000089831D820EC08D81882F90E09E01265F09
:101510003F4F820F931F20E2FC0120838D818F5F5C
:101520008D838D818B3078F31D8236C089819A81BD
:10153000FC0180818136D8F089819A81FC0180810B
:101540008B37A8F48D81282F30E089819A81AC01F6
:101550004F5F5F4F5A834983FC01808140EE480F03
:10156000CE010A96820F931FFC01408312C08D8129
:10157000282F30E089819A81AC014F5F5F4F5A83F9
:101580004983FC014081CE010A96820F931FFC0122
:1015900040838D818F5F8D8389819A81FC01808159
:1015A0008C3521F6AE01465F5F4F8E819F81A88505
:1015B000B98522E332E0BC01CD01CADC009729F0F5
:1015C00081E090E0A0E0B0E09BC080913202909179
:1015D0003302A0913402B09135028E839F83A88795
:1015E000B9878C818F5F8C838C81282F30E08B8131
:1015F000882F90E00197281739070CF47DCF898157
:101600009A8101969A8389831D820EC08D81882FCD
:1016100090E09E01265F3F4F820F931F20E2FC0166
:1016200020838D818F5F8D838D818B3078F31D8238
:1016300036C089819A81FC0180818136D8F0898108
:101640009A81FC0180818B37A8F48D81282F30E0AE
:1016500089819A81AC014F5F5F4F5A834983FC01B6
:10166000808140EE480FCE010A96820F931FFC0145
:10167000408312C08D81282F30E089819A81AC018E
:101680004F5F5F4F5A834983FC014081CE010A9628
:10169000820F931FFC0140838D818F5F8D83898131
:1016A0009A81FC018081882321F68D81882329F489
:1016B0008E819F81A885B98523C0AE01465F5F4FAB
:1016C0008E819F81A885B98522E332E0BC01CD01DE
:1016D0003FDC009729F081E090E0A0E0B0E010C08E
:1016E0008091320290913302A0913402B091350280
:1016F0008E839F83A887B9878E819F81A885B985AE
:10170000BC01CD0166960FB6F894DEBF0FBECDBF0B
:10171000DF91CF910895CF93DF9300D01F921F9256
:10172000CDB7DEB79B838A837D836C83198215C016
:101730008981882F90E02981222F30E04C815D81C2
:10174000240F351FF90140812A813B81820F931FAD
:10175000FC01408389818F5F89838981883040F3D0
:10176000198218C08981882F90E02981222F30E0CA
:101770004C815D81240F351F285F3F4FF901408167
:101780002A813B81820F931F0896FC014083898147
:101790008F5F89838981833028F38C819D81FC014F
:1017A00023858A819B81FC0123878C819D81FC019B
:1017B00024858A819B81FC0124878C819D81FC0189
:1017C00025858A819B81FC012587198218C0898122
:1017D000882F90E02981222F30E04C815D81240FF9
:1017E000351F225F3F4FF90140812A813B81820FE3
:1017F000931F0E96FC01408389818F5F89838981C5
:10180000823028F3198218C08981882F90E02981BD
:10181000222F30E04C815D81240F351F205F3F4F28
:10182000F90140812A813B81820F931F4096FC0180
:10183000408389818F5F89838981823028F319826F
:1018400018C08981882F90E02981222F30E04C81B7
:101850005D81240F351F2E5E3F4FF90140812A81A3
:101860003B81820F931F4296FC01408389818F5FE9
:1018700089838981823028F38C819D81FC012489B0
:1018800035898A819B81FC01358B248B198218C094
:101890008981882F90E02981222F30E04C815D8161
:1018A000240F351F2A5E3F4FF90140812A813B8179
:1018B000820F931F4696FC01408389818F5F898345
:1018C0008981823028F3198218C08981882F90E09D
:1018D0002981222F30E04C815D81240F351F285E45
:1018E0003F4FF90140812A813B81820F931F489627
:1018F000FC01408389818F5F89838981823028F34D
:101900008C819D81FC01228D338D8A819B81FC011C
:10191000338F228F8C819D81FC01848D958DA68DC6
:10192000B78D2A813B81F901848F958FA68FB78F60
:101930000F900F900F900F900F90DF91CF9108951F
:10194000CF93DF93CDB7DEB76B970FB6F894DEBFBA
:101950000FBECDBF9F8B8E8B798F688F5B8F4A8F29
:10196000198618861B861A868E899F897ADDDC0186
:10197000CB018C879D87AE87BF878C859D85AE8583
:10198000BF8581309105A105B10511F481E0E2C167
:101990008C859D85AE85BF850097A105B10509F0B1
:1019A000BEC080915302882309F0B9C080E092E064
:1019B000FFD4998B888B88899989009711F481E0ED
:1019C000C9C11D8295C0E0910602F09107028D8188
:1019D000282F30E040E050E0809141029091420297
:1019E000A0914302B0914402820F931FA41FB51F20
:1019F00028893989A901BC01CD011995882329F0CD
:101A0000888999896DD581E0A5C11F821E8266C033
:101A1000288939898E819F81820F931F9B878A87AE
:101A20008A859B85FC01808121E08E3209F420E0CB
:101A30008A859B85FC01908181E0992309F480E0EF
:101A40008223282F30E08A859B85FC01908181E0EC
:101A5000953E09F480E0882F90E0282339238A8579
:101A60009B85FC01938581E09F3009F480E0882FFD
:101A700090E082239323009761F18A859B85FC0186
:101A80008085823431F58A859B85FC018185893486
:101A900001F58A859B85FC0182858E34D1F42A85E7
:101AA0003B85888D998DB90136DE888599850196AB
:101AB000998788878A8D9B8DFC012081318188855B
:101AC00099852817390729F48889998909D580E0EB
:101AD00041C18E819F8180969F838E838E819F815D
:101AE0008115F2E09F0708F493CF8D818F5F8D837E
:101AF0008D81282F30E040E050E080915602909197
:101B00005702A0915802B0915902281739074A0785
:101B10005B0708F458CF88899989E2D40CC18C8579
:101B20009D85AE85BF8589839A83AB83BC8389817C
:101B30009A81AB81BC819C01AD01225031094109E0
:101B400051098091490290914A02CC01A0E0B0E095
:101B5000BC01CD0105D49B01AC0180914B02909159
:101B60004C02A0914D02B0914E02820F931FA41F10
:101B7000B51F8A8B9B8BAC8BBD8B80E092E018D419
:101B8000998B888B88899989009711F481E0E2C04C
:101B90001D8291C0E0910602F09107028D81282FED
:101BA00030E040E050E08A899B89AC89BD89820F92
:101BB000931FA41FB51F28893989A901BC01CD0134
:101BC0001995882329F0888999898AD481E0C2C02F
:101BD0001F821E8266C0288939898E819F81820F6B
:101BE000931F9B878A878A859B85FC01808121E0E2
:101BF0008E3209F420E08A859B85FC01908181E08A
:101C0000992309F480E08223282F30E08A859B8580
:101C1000FC01908181E0953E09F480E0882F90E0FE
:101C2000282339238A859B85FC01938581E09F3099
:101C300009F480E0882F90E082239323009761F1DC
:101C40008A859B85FC018085823431F58A859B8558
:101C5000FC018185893401F58A859B85FC0182859B
:101C60008E34D1F42A853B85888D998DB90153DD59
:101C7000888599850196998788878A8D9B8DFC0137
:101C800020813181888599852817390729F4888929
:101C9000998926D480E05EC08E819F8180969F8343
:101CA0008E838E819F818115F2E09F0708F493CF88
:101CB0008D818F5F8D838D81282F30E08091490247
:101CC00090914A022817390708F464CF88899989C6
:101CD00007D489819A81AB81BC81BC01CD0165D8D3
:101CE000DC01CB0189839A83AB83BC8389819A8190
:101CF000AB81BC818F3F2FEF9207A2072FE0B20785
:101D0000D1F089819A81AB81BC81883FEFEF9E073A
:101D1000AE07EFE0BE0779F080915302882351F4BB
:101D200089819A81AB81BC818F3FFFEF9F07A1051D
:101D3000B10509F0FCCE8A8D9B8DFC0180819181DB
:101D4000009739F48A8D9B8D28853985FC01318374
:101D5000208380E06B960FB6F894DEBF0FBECDBF38
:101D6000DF91CF910895CF93DF93CDB7DEB78CE4A9
:101D700090E023E5FC0120838DE490E02DE430E049
:101D8000F90120812E7FFC012083DF91CF910895FE
:101D9000CF93DF93CDB7DEB78CE490E020E5FC0174
:101DA00020838DE490E02DE430E0F9012081216072
:101DB000FC012083DF91CF910895CF93DF93CDB7BE
:101DC000DEB784E290E024E230E0F9012081276070
:101DD000FC012083C8DFDCDFDF91CF910895CF9332
:101DE000DF931F92CDB7DEB789838EE490E029811F
:101DF000FC01208300008DE490E0FC0180818823B9
:101E0000D4F78EE490E0FC0180810F90DF91CF91B8
:101E10000895CF93DF931F92CDB7DEB7198286E680
:101E200090E0FC011082C9DF85E290E025E230E01D
:101E3000F90120812160FC01208307C089818F5F27
:101E4000898389818F3F09F4EACF71D08823B1F764
:101E500086E690E02FEFFC0120838FEF9FEF0E943A
:101E600088000E94C904882309F0D9CF0F90DF9120
:101E7000CF910895CF93DF93CDB7DEB727970FB6F5
:101E8000F894DEBF0FBECDBF8B834C835D836E8322
:101E90007F8319828FEFA3DF85E290E025E230E0B7
:101EA000F90120812E7FFC0120838B81806497DFE4
:101EB0008C819D81AE81BF818B2F9927AA27BB275B
:101EC0008EDF8C819D81AE81BF81CD01AA27BB278A
:101ED00086DF8C819D81AE81BF81892F9A2FAB2FA8
:101EE000BB277DDF8C817BDF85E979DF07C08981B6
:101EF00091E0980F99838F3F09F406C08FEF6FDF51
:101F00008A838A818F3F99F385E290E025E230E071
:101F1000F90120812160FC0120838A8127960FB678
:101F2000F894DEBF0FBECDBFDF91CF910895CF9360
:101F3000DF9300D01F921F92CDB7DEB71D821A82A9
:101F40008FEF9FEF9C838B830EDF198205C08FEF8D
:101F500046DF89818F5F898389818A30C0F340E0C1
:101F600050E0BA0180E086DF8D838A818F5F8A83AB
:101F70008A818F3F11F481E02EC08D81813029F755
:101F800000008B819C819C01215031093C832B8373
:101F90000097B9F71A8240E050E0BA0181E06ADFA9
:101FA0008D838A818F5F8A838A818F3F11F481E0DC
:101FB00012C08D81882379F7EBDE40E050E0BA0152
:101FC0008BE358DF8D8340E052E060E070E080E119
:101FD00051DF8D8380E00F900F900F900F900F9046
:101FE000DF91CF9108950F931F93CF93DF93CDB7D8
:101FF000DEB72B970FB6F894DEBF0FBECDBF6E8352
:102000007F83888799875B874A871C821B828E81A2
:102010009F81A885B985072E79E0880F991FAA1F8F
:10202000BB1F7A95D1F7702DAC01BD0181E122DF94
:102030008D838D81882311F08D814AC085E290E0E7
:1020400025E230E0F90120812E7FFC01208316C0BB
:102050008B819C819C012F5F3F4F3C832B83893E6A
:10206000F3E09F0758F085E290E025E230E0F901C7
:1020700020812160FC01208381E02AC08FEFAFDE48
:102080008E3F31F71A8219820FC00A851B85C8015D
:1020900001969B878A878FEFA2DEF8018083898172
:1020A0009A8101969A83898389819A818115F2E0C8
:1020B0009F0758F38FEF93DE8FEF91DE85E290E07C
:1020C00025E230E0F90120812160FC01208380E0DD
:1020D0002B960FB6F894DEBF0FBECDBFDF91CF9128
:1020E0001F910F910895CF93DF93CDB7DEB7699716
:1020F0000FB6F894DEBF0FBECDBF40E050E0BA018E
:1021000089E0B8DE89838981882331F08981882F2D
:1021100090E0A0E0B0E0C8C085E290E025E230E0C9
:10212000F90120812E7FFC01208300008FEF57DE14
:102130008E3FE1F71B821A8211C08FEF50DE482FCD
:102140009E01265F3F4F8A819B81820F931FFC0176
:1021500040838A819B8101969B838A838A819B81AC
:102160008031910550F38FEF3ADE8FEF38DE8FEF3D
:1021700036DE85E290E025E230E0F9012081216041
:10218000FC0120838889882F90E0837099279B83A6
:102190008A838A819B81982F88279B838A83898958
:1021A000882F90E02A813B81820F931F9B838A8333
:1021B0008A819B81880F991F880F991F9B838A832F
:1021C0008A898295869586958370882F90E09927D5
:1021D0002A813B81820F931F9B838A838B89837023
:1021E00089838981880F89838C89881F8827881F24
:1021F0009981890F898389818E5F898381E090E04D
:102200009D838C8309C08C819D81880F991F9D833C
:102210008C8389818150898389818823A1F78A8170
:102220009B8101969C0140E050E08C819D81CC0116
:10223000A0E0B0E0BC01CD0193D0DC01CB018E83E6
:102240009F83A887B9878F85882F90E08F70992703
:102250009B838A8381E090E09D838C830BC08C817B
:102260009D81880F991F9D838C838A819B81019713
:102270009B838A838A819B81009789F78C819D81CA
:10228000CC01A0E0B0E02E813F8148855985BC019A
:10229000CD0166D0DC01CB018E839F83A887B987EF
:1022A0008E819F81A885B985BC01CD0169960FB645
:1022B000F894DEBF0FBECDBFDF91CF910895CF93CD
:1022C000DF93CDB7DEB781E290E02FEFFC012083F2
:1022D00084E290E02FEFFC01208387E290E02FEF73
:1022E000FC0120838AE290E02FE0FC0120838DE254
:1022F00090E02FEFFC01208380E390E02FEFFC01C2
:10230000208382E290E0FC01108285E290E020E2EE
:10231000FC01208388E290E0FC0110828BE290E0D7
:1023200028EFFC0120838EE290E0FC01108288E21D
:1023300090E028E230E0F90120812160FC01208357
:1023400082E090E00E943A040E94C7020E944C047E
:1023500084E690E00E9488005CDD0E94DD00FFCFF3
:10236000DB018F939F930BD0BF91AF91A29F800D04
:10237000911DA39F900DB29F900D1124089509D037
:10238000A59F900DB49F900DA49F800D911D1124C9
:102390000895A29FB001B39FC001A39F700D811D3E
:1023A0001124911DB29F700D811D1124911D08955E
:1023B000CF93DF938230910510F482E090E0E091BA
:1023C0006202F091630220E030E0A0E0B0E03097DC
:1023D00039F14081518148175907B8F0481759071A
:1023E00071F482819381109729F013969C938E93B8
:1023F00012972CC0909363028093620227C021152C
:10240000310531F04217530718F0A901DB0101C073
:10241000EF019A01BD01DF010280F381E02DD7CFEA
:1024200021153105F9F0281B390B2430310580F4D2
:102430008A819B816115710521F0FB019383828361
:1024400004C09093630280936202FE01329644C0FE
:10245000FE01E20FF31F81939193225031093983DA
:1024600028833AC02091600230916102232B41F40D
:1024700020910202309103023093610220936002A6
:1024800020910002309101022115310541F42DB750
:102490003EB74091040250910502241B350BE09198
:1024A0006002F0916102E217F307A0F42E1B3F0BCC
:1024B0002817390778F0AC014E5F5F4F24173507B6
:1024C00048F04E0F5F1F509361024093600281936A
:1024D000919302C0E0E0F0E0CF01DF91CF91089549
:1024E000CF93DF93009709F487C0FC0132971382E2
:1024F0001282C0916202D0916302209781F4208100
:102500003181280F391F80916002909161028217FA
:10251000930779F5F0936102E09360026DC0DE01EC
:1025200020E030E0AE17BF0750F412964D915C9159
:1025300013979D014115510509F1DA01F3CFB383DA
:10254000A28340815181840F951F8A179B0771F4E4
:102550008D919C911197840F951F02969183808392
:1025600012968D919C911397938382832115310547
:1025700029F4F0936302E09362023EC0D9011396FE
:10258000FC93EE9312974D915D91A40FB51FEA173E
:10259000FB0779F480819181840F951F0296D90100
:1025A00011969C938E938281938113969C938E9324
:1025B0001297E0E0F0E08A819B81009719F0FE011C
:1025C000EC01F9CFCE01029628813981820F931F49
:1025D00020916002309161022817390769F4309721
:1025E00029F4109263021092620202C013821282D6
:1025F000D0936102C0936002DF91CF910895F89467
:02260000FFCF0A
:10260200000064022000F30F5C62617463680000E2
:00000001FF
